:100000000C9464010C9432100C940B100C948C0121
:100010000C948C010C948C010C948C010C948C012C
:100020000C948C010C948C010C948C010C948C011C
:100030000C948C010C948C010C948C010C948C010C
:100040000C94C10F0C948C010C947F100C945910DB
:100050000C948C010C948C010C948C010C948C01EC
:100060000C948C010C948C012E002E00566572733A
:10007000696F6E3A20004552524F523A20556E6BCE
:100080006E6F776E20636F6D6D616E6400496E7682
:10009000616C696420636F6D6D616E643A20736892
:1000A0006F756C64206265203C50206D732F313079
:1000B0003E00496E76616C696420636F6D6D616EA0
:1000C000643A2073686F756C64206265203C41203F
:1000D000616464726573733E00496E76616C696435
:1000E00020636F6D6D616E643A2073686F756C6428
:1000F000206265203C5420616464726573733E0025
:10010000496E76616C696420636F6D6D616E643AEF
:100110002073686F756C64206265203C43206164C5
:1001200064726573733E00203D2000435600203DFD
:100130002000435600203D2000435600203D200073
:10014000435600435673206172653A00536F6674DC
:100150002052657365743A203C5A3E0053686F77AD
:100160002063757272656E74204356733A203C3E6C
:10017000005265736574206465636F6465722074F2
:100180006F20466163746F72792044656661756C97
:1001900074733A203C443E00536574206465636F79
:1001A000646572206F75747075742070756C7365FA
:1001B0002074696D653A203C5020206D53202F201B
:1001C00031303E00536574206465636F646572204E
:1001D0006261736520616464726573733A203C41A7
:1001E00020616464726573733E005468726F772097
:1001F00061207475726E6F75743A203C542061648E
:1002000064726573733E00436C6F73652061207484
:1002100075726E6F75743A203C4320616464726538
:1002200073733E0048656C702054657874005265A5
:1002300073657420666163746F72792064656661AA
:10024000756C74204356732E205265736574203C80
:100250005A3E206465636F646572206E6578740031
:10026000526573657474696E6700000000002400B5
:1002700027002A0000000000250028002B000000B5
:1002800000002300260029000404040404040404DC
:100290000202020202020303030303030102040831
:1002A00010204080010204081020010204081020E0
:1002B0000000000800020100000304070000000025
:1002C00000000000B1108C1811241FBECFEFD8E041
:1002D000DEBFCDBF23E0ACECB1E001C01D92AF3179
:1002E000B207E1F711E0A0E0B1E0EEE2F8E302C00E
:1002F00005900D92AC3CB107D9F711E0C3E6D1E00F
:1003000004C02197FE010E94C519C236D107C9F762
:100310000E9400110C940A1C0C9400008230F8F426
:10032000E82FF0E0EE0FFF1FE050FF4F2CE333E02B
:1003300031832083813041F0809169008C7F682B6C
:1003400060936900E89A089580916900837F660F41
:10035000771F660F771F682B60936900E99A0895ED
:10036000833081F028F4813099F08230A9F008952B
:100370008730A9F08830C9F08430B1F480918000D2
:100380008F7D03C0809180008F77809380000895D7
:1003900084B58F7784BD089584B58F7DFBCF809120
:1003A000B0008F778093B00008958091B0008F7D6A
:1003B000F9CF1F93CF93DF93282F30E0F901E05559
:1003C000FD4F8491F901E456FD4FD491F901E857AE
:1003D000FD4FC491CC23A9F0162F81110E94B001CA
:1003E000EC2FF0E0EE0FFF1FEC58FD4FA591B491FC
:1003F0008FB7F894EC91111108C0D095DE23DC93EF
:100400008FBFDF91CF911F910895DE2BF8CFCF934F
:10041000DF9390E0FC01E456FD4F249188579D4FF7
:10042000FC0184918823C9F090E0880F991FFC019A
:10043000E659FD4FA591B491FC01EC58FD4FC591D3
:10044000D49161110DC09FB7F8948C9120958223AF
:100450008C938881282328839FBFDF91CF910895B3
:10046000623051F49FB7F8943C91822F809583239A
:100470008C93E8812E2BEFCF8FB7F894EC912E2B35
:100480002C938FBFEACF8E3008F08E508770806437
:1004900080937C0080917A00806480937A008091C0
:1004A0007A0086FDFCCF80917800909179000895C4
:1004B0008F929F92AF92BF92CF92DF92EF92FF9274
:1004C0000F931F93CF93DF938091CD028093CE0241
:1004D0000AEB12E0CC24C394D12CD0E0C0E0F801A8
:1004E00081A1882309F43AC099E0A92EB12CF12CFE
:1004F000E12CF80181A192A191115FC0282F30E079
:10050000F901E055FD4F8491F901E456FD4F9490B7
:10051000F901E857FD4F8490882009F44BC0811100
:100520000E94B001E82DF0E0EE0FFF1FE258FD4FF2
:10053000A591B491EC919E2231E020E009F430E0E5
:10054000832F922FE80EF91E41E0A41AB10809F09A
:10055000D0CF84E0E816F1040CF4E601EFEFCE1AF8
:10056000DE0A0E5F1F4FF9E1CF16D10409F0B7CFB5
:10057000209709F431C0FE013197E531F10508F00B
:100580002BC0EB53FD4F0C94C519E902EC02F902A4
:10059000FB02FD02FF02010303030503EC02EC0270
:1005A000EC020703EC0209030B030D030F03110315
:1005B0001303150390E080E0C5CF0E94430221E0C1
:1005C00030E08130924014F430E020E0E20EF31E7F
:1005D000BBCF81E08093CD02DF91CF911F910F912E
:1005E000FF90EF90DF90CF90BF90AF909F908F9053
:1005F000089582E0EFCF83E0EDCF84E0EBCF85E09C
:10060000E9CF86E0E7CF87E0E5CF88E0E3CF89E078
:10061000E1CF8AE0DFCF8BE0DDCF8CE0DBCF8DE078
:10062000D9CF8EE0D7CF8FE0D5CF80E1D3CF3FB702
:10063000F8948091FE019091FF01A0910002B09189
:10064000010226B5A89B05C02F3F19F00196A11DF8
:10065000B11D3FBFBA2FA92F982F8827BC01CD010C
:10066000620F711D811D911D42E0660F771F881F6B
:10067000991F4A95D1F70895FF920F931F93CF9337
:10068000DF930E9417032091CF013091D001EB013D
:10069000C21BD30B2091D3013091D401C217D307D1
:1006A00008F45FC04091DC015091DD0141305105FB
:1006B00061F0E0911602F09117022081309118024A
:1006C00023233091D10123134CC07093D001609348
:1006D000CF010091D5011091D6014230510509F4A6
:1006E00013C14330510509F44EC14130510561F445
:1006F0008091CE01813009F447C0C8F1833009F4FC
:1007000082C0843009F4C9C08091DC019091DD0180
:10071000019739F1C017D10708F06FC18091CC0162
:100720008F5F8093CC018B30E0F081E090E090937C
:10073000DD018093DC0161E070E0809114020E9491
:100740008E011092D1011092CE0182E590E090933B
:10075000D6018093D50183E290E09093D4018093F9
:10076000D301DF91CF911F910F91FF900895C01792
:10077000D10730F481E08093CE01C093CD01C4CF86
:1007800084E08093CE01C0CFC017D107D0F510927E
:10079000CE018091CC018F5F8093CC012091CD015F
:1007A0008C2F0C2E000C990B821B910927FD939521
:1007B00097FF03C0919581959109499794F2109202
:1007C000DD011092DC0182E990E09093D6018093E4
:1007D000D50182E590E09093D4018093D3011092EB
:1007E000CC01F090D2016F2D70E0809114020E9434
:1007F0008E018091180293E0F91227C08093D101F5
:1008000083CF83E0BECFC017D10708F51092DD017A
:100810001092DC0182E990E09093D6018093D5019B
:1008200082E590E09093D4018093D3011092CC01A3
:10083000F090D2016F2D70E0809114020E948E0121
:100840008091180233E0F316C9F280E0D7CF90917F
:10085000D201933009F482E08093D20182E090E0EB
:100860009093DD018093DC0182E990E09093D601C2
:100870008093D50182E590E09093D4018093D301D9
:100880001092E2018091CC018093E3011092DF018C
:100890001092E1011092E001CBCFC017D107A8F46C
:1008A0001092DD011092DC0182E990E09093D60174
:1008B0008093D50182E590E09093D4018093D30199
:1008C0001092CC011092DF018CCF82E090E09093E7
:1008D000DD018093DC0182E990E09093D601809362
:1008E000D50182E590E09093D4018093D3011092DA
:1008F000E2018091CC018093E3011092DF0110921C
:10090000E1011092E0016DCF9091DF019F5F909324
:10091000DF018091E001880FC017D107E0F08093DC
:10092000E001983009F0F6CEE091E201E630A9F45A
:100930001092DD011092DC0182E990E09093D601E3
:100940008093D50182E590E09093D4018093D30108
:100950001092DF01D9CE8160E2CF83E090E09093E6
:10096000DD018093DC0181E08E0F8093E2019091A4
:10097000E001F0E0E452FE4F90878091E101892789
:100980008093E101C1CEC017D10738F51092DD0187
:100990001092DC011092DF0182E990E09093D60181
:1009A0008093D50182E590E09093D4018093D301A8
:1009B0008091E1018111B2CE88E0E2EEF1E0AAEE91
:1009C000B1E001900D928A95E1F78091DE018F5F91
:1009D0008093DE011092CC0197CE8091E2018630A7
:1009E00009F4A6CF82E090E09093DD018093DC01D2
:1009F0001092DF011092E00187CE1092CC01B1CEAF
:100A00008F929F92AF92BF92CF92DF92EF92FF921E
:100A10004B015C010E9417036B017C010E941703CC
:100A20006C197D098E099F09683E73408105910507
:100A3000A8F321E0821A9108A108B10888EEC80E37
:100A400083E0D81EE11CF11C81149104A104B104BF
:100A500029F7FF90EF90DF90CF90BF90AF909F90DD
:100A60008F9008952FB7F8946091FA017091FB016F
:100A70008091FC019091FD012FBF089584E0809347
:100A8000F801089580E090E0892B11F00C940000AB
:100A9000089508950895AF92BF92CF92DF92EF929A
:100AA000FF920F931F93CF93DF936C017B018B0118
:100AB000040F151FEB015E01AE18BF08C017D10768
:100AC00059F06991D601ED91FC910190F081E02DF2
:100AD000C6010995892B79F7C501DF91CF911F9147
:100AE0000F91FF90EF90DF90CF90BF90AF9008955F
:100AF000FC01538D448D252F30E0842F90E0821B24
:100B0000930B541710F0CF96089501970895FC01A8
:100B1000918D828D981761F0A28DAE0FBF2FB11D00
:100B20005D968C91928D9F5F9F73928F90E0089558
:100B30008FEF9FEF0895FC01918D828D981731F012
:100B4000828DE80FF11D858D90E008958FEF9FEF66
:100B50000895FC01918D228D892F90E0805C9F4F3C
:100B6000821B91098F73992708958DE192E00E946D
:100B7000A90521E0892B09F420E0822F089580E067
:100B800090E0892B29F00E94B50581110C9400009A
:100B90000895FC01A48DA80FB92FB11DA35ABF4F12
:100BA0002C91848D90E001968F739927848FA6896C
:100BB000B7892C93A089B1898C91837080648C93C0
:100BC000938D848D981306C00288F389E02D80816F
:100BD0008F7D80830895EF92FF920F931F93CF93A1
:100BE000DF93EC0181E0888F9B8D8C8D98131AC068
:100BF000E889F989808185FF15C09FB7F894EE894F
:100C0000FF896083E889F9898081837080648083AB
:100C10009FBF81E090E0DF91CF911F910F91FF90F6
:100C2000EF900895F62E0B8D10E00F5F1F4F0F739E
:100C30001127E02E8C8D8E110CC00FB607FCFACF59
:100C4000E889F989808185FFF5CFCE010E94C90529
:100C5000F1CFEB8DEC0FFD2FF11DE35AFF4FF0822A
:100C60009FB7F8940B8FEA89FB8980818062CFCF90
:100C70000F931F93CF93DF938C01D0E0C0E0F80176
:100C8000EC0FFD1F6491662341F08DE192E00E941C
:100C9000EB05892B11F02196F2CFCE01DF91CF9198
:100CA0001F910F910895CF93DF93EC01888D8823D6
:100CB000B9F0AA89BB89E889F9898C9185FD03C0BF
:100CC000808186FD0DC00FB607FCF7CF8C9185FFA4
:100CD000F2CF808185FFEDCFCE010E94C905E9CF1B
:100CE000DF91CF910895CF93C82F80E090E0892BBA
:100CF00051F0809105028C1731F081E0C11101C0E3
:100D000080E00E940000C093050260E070E0CB012B
:100D1000C1110E943205609306027093070280930E
:100D200008029093090280E090E0892B59F08091AD
:100D300005028C1739F081E0C11101C080E0CF912C
:100D40000C940000CF9108958830910561F46623DA
:100D5000E9F024E02093F80120E030E041E0232B8B
:100D600081F00C94000020E030E0232BD1F741E02B
:100D7000811524E0920708F040E0611102C0842F41
:100D8000089507970297D8F740E0F9CF20E030E0C8
:100D9000232B39F741E0F3CF80E090E0892B29F055
:100DA00080911C0283FD0C94000008950F931F9303
:100DB000CF93DF938C01D0E0C0E061E08DE00E9432
:100DC000D90164E670E080E090E00E94000560E0F8
:100DD0008DE00E94D90164E670E080E090E00E941E
:100DE000000521960C171D0741F7DF91CF911F9148
:100DF0000F910895FC0101900020E9F73197AF01B0
:100E0000481B590BBC018DE192E00C944B058F926D
:100E10009F92AF92BF920F931F93CF93DF93CDB763
:100E2000DEB7A1970FB6F894DEBF0FBECDBF19A2F3
:100E3000423008F44AE08E010F5D1F4F842E912C42
:100E4000B12CA12CA50194010E94A319E62FB90190
:100E5000CA01EA30F4F4E05DD801EE938D01232B52
:100E6000242B252B79F790E080E0109719F0CD0125
:100E70000E94FA06A1960FB6F894DEBF0FBECDBF52
:100E8000DF91CF911F910F91BF90AF909F908F9066
:100E90000895E95CE1CFCF92DF92EF92FF92CF937A
:100EA000DF936B017C016DE28DE192E00E94EB0526
:100EB000EC0166277727CB016C197D098E099F0904
:100EC0004AE00E9407078C0F9D1FDF91CF91FF9092
:100ED000EF90DF90CF900895BC01990F880B990B8C
:100EE0004AE00C940707CF93DF93682F70E090E0FF
:100EF00080E04AE00E940707EC0188E591E00E944B
:100F0000FA068C0F9D1FDF91CF9108958091BA0250
:100F10009091BB028130910501F160F08230910522
:100F200009F443C2039709F475C28091BA02909103
:100F3000BB0208958091BC029091BD028F3F21E0D9
:100F4000920799F39093C9028093C80281E090E0E0
:100F50009093BB028093BA02E8CF8091C80290912F
:100F6000C902813F910521F461E08DE00E94D90121
:100F70008091C8029091C902823F910521F460E0FE
:100F80008DE00E94D9018091C8029091C9028B3FE7
:100F9000910521F461E08CE00E94D9018091C802A2
:100FA0009091C9028C3F910521F460E08CE00E9491
:100FB000D9018091C8029091C90285309140D1F445
:100FC00061E08DE00E94D90161E08CE00E94D901CE
:100FD00060ED77E080E090E00E94000560E08CE04A
:100FE0000E94D90168E873E180E090E00E9400056A
:100FF0000E9458028091C8029091C90286309140A7
:10100000D1F460E08DE00E94D90161E08CE00E94A3
:10101000D90160ED77E080E090E00E94000560E09B
:101020008CE00E94D90168E873E180E090E00E94C2
:1010300000050E9458028091C8029091C90289312E
:101040009140E1F561E08DE00E94D90161E08CE022
:101050000E94D9018091BE029091BF029093BD027F
:101060008093BC028091C0029091C1029093BF0214
:101070008093BE028091C2029091C3029093C102FC
:101080008093C0028091C4029091C5029093C302E4
:101090008093C2028091C6029091C7029093C502CC
:1010A0008093C4028FEF91E09093C9028093C802AD
:1010B00082E090E09093BB028093BA028091C802D4
:1010C0009091C9028A319140E1F560E08DE00E9483
:1010D000D90161E08CE00E94D9018091BE0290911B
:1010E000BF029093BD028093BC028091C002909198
:1010F000C1029093BF028093BE028091C202909180
:10110000C3029093C1028093C0028091C402909167
:10111000C5029093C3028093C2028091C60290914F
:10112000C7029093C5028093C4028FEF91E0909321
:10113000C9028093C80282E090E09093BB02809342
:10114000BA028091C8029091C9028332914051F451
:1011500060E08CE00E94D90183E090E09093BB02B4
:101160008093BA022091C8023091C902C901019747
:10117000883E9105C8F5C9016AE070E00E947B19BC
:10118000822F9AE0699F801911248093CF028130C9
:1011900039F421502093CC0261E08DE00E94D90106
:1011A0008091CF02823049F48091C80282508093AE
:1011B000CC0260E08DE00E94D9018091CC028E3695
:1011C00009F49FC008F063C0823309F492C008F0AC
:1011D0004BC0843109F489C008F03EC0882309F46B
:1011E0007EC08A3009F47FC08091C8029091C90204
:1011F0009C012F5031402230310508F097C08F30CC
:10120000914021F461E08DE00E94D9018091C802F3
:101210009091C9028031914021F460E08DE00E94FC
:10122000D901E091CD02E150E03108F07FC0F0E05B
:10123000E45EF64F0C94C5199309A309A509A70903
:10124000A909AB09AD09AF09B109B309B509B709D6
:10125000B909BB09BD09BF098E3109F448C08832FC
:1012600009F0C2CF85E03CC0803509F446C040F4A7
:101270008C3309F440C0863409F0B6CF88E030C022
:101280008A35E9F1843609F0AFCF8BE029C08A3A7C
:1012900009F43FC088F48C38C1F138F4883799F1EB
:1012A000823809F0A1CF8EE01BC0863981F1803AE7
:1012B00009F09ACF81E114C0883C79F138F4843B7D
:1012C00051F18E3B09F090CF84E10AC08C3D39F199
:1012D000863E39F1823D09F087CF86E101C081E089
:1012E0008093CC0281CF82E0FBCF83E0F9CF84E012
:1012F000F7CF86E0F5CF87E0F3CF89E0F1CF8AE042
:10130000EFCF8CE0EDCF8DE0EBCF8FE0E9CF80E148
:10131000E7CF82E1E5CF83E1E3CF85E1E1CF87E16C
:10132000DFCF88E1DDCF88E08093CC021092CD0240
:101330000E9458029091CC028091CD02981321C056
:1013400083E090E005CE8AE0EFCF8BE0EDCF8CE03C
:10135000EBCF8DE0E9CF8EE0E7CF8FE0E5CF81E006
:10136000E3CF80E1E1CF82E0DFCF83E0DDCF84E037
:10137000DBCF85E0D9CF86E0D7CF87E0D5CF89E036
:10138000D3CF61E08CE00E94D90181E08093DA0242
:1013900082E090E09093BB028093BA020E943205F3
:1013A0007093D7026093D602C0CD8091C80290910D
:1013B000C90201978739910508F0B7CD0E9432051F
:1013C0002091D6023091D702AB01BC01421B530BD6
:1013D000610971098091D8029091D902B0E0A0E032
:1013E00084179507A607B70708F09FCD0E945802FB
:1013F0006091DA0281E068276093DA028CE00E9453
:10140000D9019091CC028091CD029813C7CF83E08F
:1014100090E0C0CF8BE591E00E94FA0688E591E06C
:101420000E94FA068091C8029091C90289519140A8
:10143000029770F18091BE029091BF029093BD021D
:101440008093BC028091C0029091C1029093BF0230
:101450008093BE028091C2029091C3029093C10218
:101460008093C0028091C4029091C5029093C30200
:101470008093C2028091C6029091C7029093C502E8
:101480008093C4028FEF91E09093C9028093C802C9
:1014900060E08CE00E94D90160E08DE00E94D901FB
:1014A0001092BB021092BA0240CDCF93DF930E94FC
:1014B0003806EC0188E591E00E94FA068C0F9D1F2A
:1014C000DF91CF910895CF93DF93EC0188819981CB
:1014D000009711F00E94671A198218821D821C82DF
:1014E0001B821A82DF91CF910895FC018081918146
:1014F000009711F00C94671A08950F931F93CF93E0
:10150000DF93009769F0EC018C01025E1F4FC0175A
:10151000D10731F006501109C8010E94750AF7CFB2
:10152000DF91CF911F910F9108950F931F93CF9348
:10153000DF938C01EB01FC01808191810097E1F048
:101540006881798161157105A9F0428153812C81EF
:101550003D814217530770F00E94CC1B8C819D8106
:10156000F801958384831D821C82DF91CF911F91A6
:101570000F9108950E94671A88819981F8019183DB
:1015800080838A819B81938382838C819D819583D3
:101590008483198218821B821A82E5CF0E94730607
:1015A000E3E0F2E081E087831086ECE0F2E088E09F
:1015B000DF011D928A95E9F70895FC0180819181F0
:1015C000009711F00C94B21860E070E0CB01089520
:1015D000FB0144815581FC012481358124173507A5
:1015E00078F080819181009759F0FB0160817181D1
:1015F0006115710529F00E94D31B21E0892B09F0A8
:1016000020E0822F08950F931F93CF93DF93EC0177
:1016100088819981009759F02A813B8126173707E5
:1016200030F081E0DF91CF911F910F9108958B01F0
:101630006F5F7F4F0E94F01A009759F0998388835B
:101640001B830A832C813D81232B59F7FC011082D7
:10165000E8CF80E0E7CFEF92FF920F931F93CF93F5
:10166000DF93EC017B018A01BA010E94030B811117
:101670000BC0CE010E94630ACE01DF91CF911F9172
:101680000F91FF90EF9008951D830C83B70188811F
:1016900099810E94CC1BF0CFFB0101900020E9F75B
:1016A0003197AF01461B570B0C942B0BCF93DF9355
:1016B000EC01FB018617970749F060817181611584
:1016C000710541F0448155810E942B0BCE01DF91C1
:1016D000CF9108950E94630AF9CFFC011182108214
:1016E00013821282158214820C94560BFC01118213
:1016F00010821382128215821482FB010190002055
:10170000E9F73197AF01461B570B0C942B0BAF92A7
:10171000BF92CF92DF92EF92FF920F931F93CF93DE
:10172000DF936C015B017A0189012417350720F4EE
:101730008F2D7901042F182F6AE571E0C6010E94F0
:10174000760BD5011496CD91DC91EC16FD06E0F4F4
:101750000C171D0708F4E801D501ED91FC911197D4
:10176000EC0FFD1F108110826D917C916E0D7F1D1D
:10177000C60161157105A1F00E944C0BF501808135
:101780009181C80FD91F1883C601DF91CF911F9196
:101790000F91FF90EF90DF90CF90BF90AF900895A2
:1017A0000E94630AEBCF8F929F92AF92BF92CF922B
:1017B000DF92EF92FF920F931F93CF93DF93CDB7FA
:1017C000DEB768970FB6F894DEBF0FBECDBF8C01B1
:1017D0007B016C015C018EE1A80EB11C6AE571E031
:1017E000C6010E94760BE6E0CE0ED11CCA14DB04C3
:1017F000A9F7F801178E168EB701CE0101960E9447
:101800006D0B49815A816D817E8130E020E090E04E
:1018100080E06217730789F0FA01E20FF31F4115A8
:10182000510521F410920202E2E0F2E0E081E032A0
:1018300009F401962F5F3F4FECCF0196F801978F87
:10184000868FCE0101960E94750AF801868D978DCC
:1018500082309105DCF481E090E0978F868FB701AC
:10186000C8010E94560B68960FB6F894DEBF0FBEF3
:10187000CDBFDF91CF911F910F91FF90EF90DF903F
:10188000CF90BF90AF909F908F900895049724F0D1
:1018900083E090E0978F868FF801868D978D06976D
:1018A00020F085E090E0978F868F1C8A1B8A1E8A25
:1018B0001D8A188E1F8A80E289831A82BE016F5F9B
:1018C0007F4FCE0143960E944C0B6AE571E0CE013A
:1018D0000D960E94760BB701CE0107960E946D0B04
:1018E000D12CC12C86E0882E8B859C85892B09F410
:1018F000B0C0EF80F8846B897C89C7010E94F01B1F
:10190000009709F499C08E199F0997FD95C0F801B9
:10191000868D978D0197C816D9060CF08DC0F12CD5
:10192000E12C9E2CAF2C8B859C85E816F906E0F601
:10193000FFEFEF1AFF0A9701492D5A2DBE01695F8B
:101940007F4FCE0101960E94870B2D813E818F89AA
:10195000988D2817390711F589819A816B897C89BF
:10196000009759F06115710509F060C0232B09F447
:1019700060C0FC01808190E00DC06115710509F423
:1019800058C0232B09F455C0FB01808190E091954C
:1019900081959109BB24B394892B09F0B12CCE0118
:1019A00001960E94750ABB2009F4BBCF292D3A2D60
:1019B00050E040E0BE01695F7F4FCE0101960E947A
:1019C000870BBE016F5F7F4FCE010D960E94950A77
:1019D000CE0101960E94750A2B853C85A701BE01A8
:1019E000695F7F4FCE0101960E94870BBE016F5F3A
:1019F0007F4FCE0107960E94950ACE0101960E9464
:101A0000750A89899A89892B09F46ECF8C9CC0014B
:101A10008D9C900D1124BE01635F7F4F800F911F3D
:101A20000E94560BFFEFCF1ADF0A5ECF0E94C31B46
:101A3000B1CFBB24B394B3CF26E02C9DC0012D9D24
:101A4000900D1124BE01695F7F4F800F911F0E948E
:101A5000560BCE0107960E94750ACE010D960E9484
:101A6000750ACE0143960E94750AFDCE20E030E053
:101A7000232B11F00C9400000C942E19CF93DF93BC
:101A80002091190230911A022F3F320721F0C9012B
:101A9000DF91CF91089580911C0287FF2BC086FFB4
:101AA0000FC089E090E00E94360DC82F81E090E0E1
:101AB0000E94360D9C2F90931A028093190215C034
:101AC00089E090E00E94360DC82F81E090E00E94EE
:101AD000360D90E4C99F90011124207C31708F73E2
:101AE000282B30931A0220931902809119029091A9
:101AF0001A02CECF85FF0CC081E190E00E94360D26
:101B0000C82F82E190E00E94360DC05CDD0BD2CF81
:101B100081E090E00E94360D90E0CDCF1F93CF93EF
:101B2000DF93EC01162F83319105C8F481319105C3
:101B300028F48130910511F0099731F48FEF9FEF70
:101B400090931A028093190280E090E0892BA9F00B
:101B5000612FCE01DF91CF911F910C9400004D9722
:101B600099F7177F10931C02809103028F73912FB6
:101B7000907C892B80930302E1CFCE010E942E1925
:101B80001817C1F0612FCE010E94361980E090E055
:101B9000892B21F0612FCE010E94000080E090E0AF
:101BA000892B41F08091030284FD04C0612FCE0196
:101BB0000E940000CE01DF91CF911F910C942E194D
:101BC000CF93DF93C3E0D2E02881206128830E9475
:101BD0008E0D98819F7E9883DF91CF910895CF934A
:101BE000DF932091F2013091F30121303105A1F40E
:101BF000EC0123966D2F6695669589E090E00E9432
:101C0000E00DBE01769567957695679581E090E049
:101C1000DF91CF910C94E00D2091DA013091DB013E
:101C20008217930778F1F9017C968E179F0750F57C
:101C3000442341F1821B930B4AE0489F9001499F46
:101C4000300D112470E06F5F7F4F620F731FECEB5C
:101C5000F2E090E080E0219131916217730791F0FA
:101C600001962F3F314059F4880F991FFC01E6542B
:101C7000FD4F71836083DF91CF910C94860785308F
:101C8000910549F7DF91CF910895BF92CF92DF92EE
:101C9000EF92FF920F931F93CF93DF938B01B42E9C
:101CA000690182FF23C083FF17C061E0C8010E9461
:101CB000A4068823D9F16B2DC8010E948E0D8B11CB
:101CC00035C0F601DF91CF911F910F91FF90EF90FA
:101CD000DF90CF90BF90099460E0C8010E94A406F5
:101CE000882321F1C8010E94360DE9CF842F877027
:101CF000C1E0D0E07E0101C0EE0C8A95EAF7D42F56
:101D0000D870CB010E94360DC82FB4FE1CC061E014
:101D1000C8010E94A406882349F0DD2389F0CE295A
:101D20006C2FC8010E948E0D8C1759F2DF91CF9154
:101D30001F910F91FF90EF90DF90CF90BF9008958B
:101D4000E094CE21EDCF60E0C8010E94A406882374
:101D500069F3CE21DD2319F0C111B3CFE7CFCC2336
:101D600009F4AFCFE3CFCF92DF92EF92FF920F93C0
:101D70001F93CF93DF937C016B01C42F122FD42FBD
:101D8000D07E8091030287FF2CC0D03EC1F58091A8
:101D900004028823A1F190E00E94360DD82F809193
:101DA000040290E001960E94360D982F8D2FE816C0
:101DB000F90629F56C2F70E0762F66276627737079
:101DC000612B6F5F7F4F2CEC36E0402F8C2FDF9123
:101DD000CF911F910F91FF90EF90DF90CF900C94D7
:101DE000450E80FD36C0D03609F46DC088F4D0327F
:101DF00009F44BC0D03409F466C0DD2399F1DF91BA
:101E0000CF911F910F91FF90EF90DF90CF900895A9
:101E1000D03A09F490C0B0F4D03889F780E090E06F
:101E20002C2F2F7141E050E0892B49F3B601C701F7
:101E3000DF91CF911F910F91FF90EF90DF90CF90A6
:101E40000C940000D03C09F484C0D03E09F4B2CF19
:101E5000D6CF0E943E0D8E159F0529F2E114F104A4
:101E600011F2CDCF8C2F8E7051F680E090E0892B4F
:101E700031F28C2F8170DF91CF911F910F91FF90E4
:101E8000EF90DF90CF900C940000CF71CF3109F02C
:101E9000B6CF80E090E0892B09F4B1CF412F4F7786
:101EA00071F0413071F0111F1127111F212F30E007
:101EB0000FE710E0B601C7010E940000A0CF41E08B
:101EC000F2CF40E0F0CF80E090E0892BC1F02C2FE2
:101ED00030E08C2F8F71813029F030F0803121F08B
:101EE0008131F9F440E001C041E025FB222720F9CF
:101EF0000DE110E030E0B601C7010E94000080E073
:101F000090E0892B09F47BCF4C2FB601C701DF91FC
:101F1000CF911F910F91FF90EF90DF90CF900C9495
:101F20000000C901880F991F8E71C4FB442740F936
:101F3000482B4250DACF80E090E0892B09F45FCF44
:101F40002C2F2F7043E050E0C4FF70CF42E050E0F0
:101F50006DCFCF71CE3161F0CF3109F050CF80E03D
:101F600090E0212F45E050E0892B09F05FCF47CF6B
:101F700080E090E0212F44E050E0892B09F056CF1B
:101F80003ECF1F920F920FB60F9211242F933F93C3
:101F90008F939F93AF93BF938091FA019091FB0130
:101FA000A091FC01B091FD013091F90123E0230FD4
:101FB0002D3758F50196A11DB11D2093F90180938D
:101FC000FA019093FB01A093FC01B093FD01809175
:101FD000FE019091FF01A0910002B09101020196D3
:101FE000A11DB11D8093FE019093FF01A0930002FB
:101FF000B0930102BF91AF919F918F913F912F912B
:102000000F900FBE0F901F90189526E8230F029691
:10201000A11DB11DD2CF1F920F920FB60F921124A6
:102020002F933F934F935F936F937F938F939F93E0
:10203000AF93BF93EF93FF93E0910201F0910301FF
:102040000995FF91EF91BF91AF919F918F917F91F2
:102050006F915F914F913F912F910F900FBE0F9015
:102060001F9018951F920F920FB60F9211242F9365
:102070003F934F935F936F937F938F939F93AF9310
:10208000BF93EF93FF93E0910001F0910101099557
:10209000FF91EF91BF91AF919F918F917F916F9140
:1020A0005F914F913F912F910F900FBE0F901F9016
:1020B00018951F920F920FB60F9211242F933F93F2
:1020C0004F935F936F937F938F939F93AF93BF9340
:1020D000EF93FF938DE192E00E94C905FF91EF918C
:1020E000BF91AF919F918F917F916F915F914F9130
:1020F0003F912F910F900FBE0F901F9018951F9238
:102100000F920FB60F9211242F938F939F93EF93FB
:10211000FF93E0912D02F0912E028081E091330235
:10212000F091340282FD1BC09081809136028F5F56
:102130008F7320913702821741F0E0913602F0E070
:10214000E35EFD4F958F80933602FF91EF919F9153
:102150008F912F910F900FBE0F901F901895808137
:10216000F4CFCF93DF93EDE1F2E01382128288EE99
:1021700093E0A0E0B0E084839583A683B7838AE4EC
:1021800091E09183808385EC90E09587848784EC4F
:1021900090E09787868780EC90E0918B808B81EC34
:1021A00090E0938B828B82EC90E0958B848B86EC15
:1021B00090E0978B868B118E128E138E148E6AE5AB
:1021C00071E08BE093E00E94760BCAEBD2E01982BB
:1021D00018826AE571E080ED92E00E94760B88EC4F
:1021E00090E09F8F8E8F18A280E3EAE0F1E0ABEDE4
:1021F000B2E001900D928A95E1F7DF91CF910895B9
:10220000CF93DF93CDB7DEB72C970FB6F894DEBF30
:102210000FBECDBF789484B5826084BD84B58160E3
:1022200084BD85B5826085BD85B5816085BD8091A1
:102230006E00816080936E00109281008091810019
:102240008260809381008091810081608093810011
:10225000809180008160809380008091B1008460D3
:102260008093B1008091B00081608093B000809134
:102270007A00846080937A0080917A0082608093F3
:102280007A0080917A00816080937A0080917A0050
:10229000806880937A001092C10061E08DE00E9416
:1022A000070261E08CE00E94070261E08DE00E947D
:1022B000070262E085E10E94070260E08CE00E9474
:1022C000D90160E08DE00E94D901E0912D02F091EA
:1022D0002E0282E08083E0912902F0912A0210828E
:1022E000E0912B02F0912C0280E180831092350264
:1022F000E0913102F091320286E08083E0912F027A
:10230000F0913002808180618083E0912F02F09112
:102310003002808188608083E0912F02F09130024A
:10232000808180688083E0912F02F091300280816B
:102330008F7D8083CDB6DEB665E671E0CE01019675
:102340000E94760B0D811E81C80101962DB73EB704
:10235000281B390B0FB6F8943EBF0FBE2DBFADB78B
:10236000BEB711967D01892B29F00115110509F0E1
:102370006CC11C926BE671E0C7010E94D9180E94E3
:1023800094188093D7016BE671E090E080E00E94A2
:10239000D9180E9494188093D8016BE671E090E000
:1023A00080E00E94D9180E9494188093D901CE0130
:1023B00001960E94750A0FB6F894DEBE0FBECDBE20
:1023C00082E090E00E94360DBAE08B9F70011124EC
:1023D0000AEB12E06AEEC62E62E0D62EF80181A169
:1023E000882331F092A1913019F062E00E94070237
:1023F0000E5F1F4FC016D10689F7F092D902E09206
:10240000D8021092BB021092BA028FEF91E0909323
:10241000BD028093BC029093BF028093BE02909352
:10242000C1028093C0029093C3028093C202909332
:10243000C5028093C4029093C7028093C602109293
:10244000140282E080931502EAE8F2E0E491F0E001
:10245000EE0FFF1FE258FD4F859194919093170264
:1024600080931602EEE9F2E0E491E093180260E056
:1024700082E00E940702ECEDF1E086E1DF011D92AF
:102480008A95E9F782E990E09093D6018093D5018F
:1024900082E590E09093D4018093D30180EC809307
:1024A0000302109204028FEF9FEF90931A02809321
:1024B000190210921B0283E08093D20180911802CE
:1024C0008093D10163E070E0809114020E948E013C
:1024D0008DE190E00E94360D682F606C8DE190E0F8
:1024E0000E948E0D80931C026BE087E090E00E94BA
:1024F0008E0D6DE088E090E00E948E0D80E00E94DD
:10250000CE0A89E090E00E94360D182F81E090E01D
:102510000E94360D212F30E0322F2227820F932F79
:10252000911D880F991F880F991F03979093DB01C6
:102530008093DA018DE691E00E94FA064AE06BE0B2
:1025400070E080E090E00E94070788E591E00E943B
:10255000FA0682E991E00E94FA066091DA01709130
:10256000DB0190E080E04AE00E94070788E591E007
:102570000E94FA068CE690E00E9438066091D7012E
:1025800070E090E080E04AE00E9407078AE690E071
:102590000E9438066091D80170E090E080E04AE047
:1025A0000E94070788E690E00E9438068091D901D2
:1025B0000E94730785EA91E00E94FA0688E591E09F
:1025C0000E94FA0685E090E00E94D60690E0A92ECF
:1025D00090E0B92E20E0622E20E0722E809105025C
:1025E0008823B1F00E943205009106021091070283
:1025F0002091080230910902601B710B820B930B32
:10260000653171058105910518F080E00E94CE0AC0
:102610008091DE01882309F440C0F89488E0EAEE56
:10262000F1E0A1E1B3E001900D928A95E1F71092FB
:10263000DE01789480911103E82FF0E0ED5EFC4F0D
:10264000863070F411928F5FFBCF69817A81A80187
:10265000CD010E94E11BF701E00FF11F10828ACE2D
:10266000E0E0F0E0EF2B21F081E193E00E94000038
:1026700080911303811195C090911403911191C021
:102680006114710411F00E940000809105028823FA
:1026900009F483C081E00E9473060E94860780913E
:1026A000F8018823D9F080E090E0892B09F48DC2ED
:1026B0000E940000882391F08091F801815080935E
:1026C000F80190E0FC01EE0FFF1FE80FF91FE65C38
:1026D000FE4F6281808191810E94E00D85E10E9420
:1026E000430201E010E08130A2E09A0714F410E008
:1026F00000E01093F7010093F6012091F40130916E
:10270000F5010217130759F01093F3010093F2013A
:102710008130924024F083E090E00E94D60610932E
:10272000F5010093F4016AE571E08BE093E00E940B
:102730004C0B8DE192E00E94A905892B09F44BC254
:102740008DE192E00E94870589831A8200910F0330
:10275000109110030F5F1F4FB8018BE093E00E94B0
:10276000030B882399F020910B0330910C03809187
:102770000F0390911003BE016F5F7F4F820F931F75
:102780000E94CC1B1093100300930F036AE070E0CB
:1027900080E090E00E940005CCCF81E00E94CE0A4C
:1027A0007CCF90910502992309F48AC0805780312B
:1027B00008F083C081E00E9473061091110380919C
:1027C0000C0218130AC0412F50E06EE072E083E162
:1027D00093E00E94AD1B892B61F010920B0288E000
:1027E000E1E1F3E0ACE0B2E001900D928A95E1F70F
:1027F00054CF80910B028F5F80930B02133009F04E
:1028000044C090911303892F8770F0901403853092
:1028100049F4F0920A02A114B10409F43ECF0E94D7
:1028200000003BCF0DE110E0843091F0282F30E024
:102830008430F0F400910A020023D1F00150110B12
:10284000000F111F000F111F020F131F0F5F1F4FEB
:1028500093FF10C061E0C8010E94A406882309F418
:102860001CCF6F2DC8010E948E0DF81216CFD3CF4A
:102870008901ECCF60E0C8010E94A406882309F416
:102880000CCFC8010E94360DF0CF143009F005CFEF
:1028900080911303682F70E0762F66276627737088
:1028A00090911403692B6F5F7F4F22E435E04091D4
:1028B00015038C700E94450EF0CE80E00E94CE0A77
:1028C000E0911303EF3F61F4809114038111E5CE91
:1028D00020E030E0232B09F4E0CE0E940000DDCEA2
:1028E000E7FD0DC0009116032091150340911403DC
:1028F00070E060E08E2F90E00E94B30ECECEE03C00
:1029000008F052C19091030297FFC7CE8091140343
:10291000282F30E0890100951095000F111F000F3E
:10292000111F007C1170EF730E2B35952795422FE8
:102930004370942E20911103253039F58C788C301A
:1029400021F50E943E0D8017910721F00F3F1140A5
:1029500009F0A3CE0091140310E0102F00270027E8
:10296000137080911503080F111D0F5F1F4FF0901A
:10297000160361E0C8010E94A4066F2D882309F4A4
:102980008CCEC8010E948E0D88CE6801A1E0CA1AC3
:10299000D108CC0CDD1CCC0CDD1CC9287601BFEFA6
:1029A000EB1AFB0A80911B028823F9F096FF41C0C5
:1029B000C70160E071E00E948F19682F81E090E00C
:1029C0000E948E0DC701F7FE02C081509F4F692FF4
:1029D00089E090E00E948E0DE0E0F0E0EF2B19F02E
:1029E000C7010E94000010921B028091030280FD2B
:1029F00039C080911103843009F04FC080911403D5
:102A00008978813009F049CE80E090E0892B29F067
:102A100060911503C7010E940000A0E0B0E0AB2B5D
:102A200009F43BCE40911503692DC7010E940000B7
:102A300034CEB8016F73772781E090E00E948E0D4D
:102A4000B80156E0759567955A95E1F789E090E0F1
:102A50000E948E0D20E030E0232B29F2C8010E9455
:102A60000000C1CF86FF0DC00E943E0D8E159F0550
:102A700009F4BFCF3DEFE31637E0F3060CF0B9CF12
:102A80000CCE0E943E0D8017910709F4B2CF0F3F84
:102A900041E0140709F4ADCF00CE833041F54091F9
:102AA0001403B42FB170CB2E43FBDD24D0F8E0E04B
:102AB000F0E0EF2B31F047702D2DB801C7010E94D7
:102AC00000008091030286FF06C04D2D6C2DC701CA
:102AD0000E94EF0DE2CD20E030E0232B09F4DDCDA4
:102AE0002D2D4C2D692DC8010E940000D6CD8630B9
:102AF00009F0D3CD80911403982F9978913021F06B
:102B00008F78803809F0C9CD8091030286FF28C0F4
:102B10000E943E0D8E159F05E9F48091150390E00B
:102B2000382F22272227337000911603020F132F0C
:102B3000111D0F5F1F4FF090170395958795959581
:102B40008795837099278230910599F0039709F44E
:102B500010CFA3CD3DEFE31637E0F306F4F69DCD9D
:102B60000E943E0D80179107C1F20F3F1140A9F25C
:102B700094CDF4FE92CD61E0C8010E94A4068823A2
:102B800009F48BCDC8010E94360D9F2D977061E02E
:102B900070E001C0660F9A95EAF7F3FE02C0682B59
:102BA000F0CE60956823EDCEE83E08F076CDE05C8F
:102BB000FF0B80911403009117032091160340919D
:102BC000150361E070E09E2F97CE8FB386958170DC
:102BD00091E089276FCD80910F0390911003892B8D
:102BE00009F40FC16BE073E0CE0107960E946D0BF4
:102BF000CF80D884C114D10439F00B851C857601AF
:102C00000115110509F062C04B855C856F817885DF
:102C10008DE192E00E944B0588E591E00E94FA0662
:102C20008B859C85892B79F06FEA71E08F8198857F
:102C30000E94C31B8C01892B31F480E692E00E9434
:102C4000550AF80109958B859C85892B79F063EBF2
:102C500071E08F8198850E94C31B892B39F48EE225
:102C600092E00E94550A84E08093F8018B859C8550
:102C7000892B09F461C067EB71E08F8198850E9410
:102C8000C31B892B09F058C084E292E00E94550AC8
:102C900087E092E00E94550A8AEE91E00E94550A70
:102CA00084EC91E00E94550A88E991E00E94550A5F
:102CB00081E791E00E94550A8CE591E00E94550A57
:102CC0008CE491E00E94550A98C074014701EFEF2F
:102CD0008E1A9E0AD7018C91082E000C990B0E9427
:102CE0002219892B91F7015011090C0D1D1DF801B6
:102CF0008081082E000C990B0E942219892B31F03B
:102D00000E151F0518F001501109F1CF0F5F1F4F6D
:102D1000A8014E195F095C874B87CE14DF0420F4AD
:102D2000B701C6010E94BA1BEF81F8858B859C858F
:102D3000E80FF91F108268CF6BEB71E0CE010196AE
:102D40000E94760BBE016F5F7F4FCE0107960E94F7
:102D5000E80A182FCE0101960E94750A112309F482
:102D60005DC083E491E00E94550A80E491E00E94F6
:102D7000380681E090E00E946C078CE391E00E94AD
:102D8000380681E090E00E94360D0E94730789E3C7
:102D900091E00E94380689E090E00E946C0785E38C
:102DA00091E00E94380689E090E00E94360D0E9472
:102DB000730782E391E00E94380682E090E00E946F
:102DC0006C078EE291E00E94380682E090E00E945B
:102DD000360D0E9473078BE291E00E9438068DE168
:102DE00090E00E946C0787E291E00E9438068DE136
:102DF00090E00E94360D0E947307CE0107960E9454
:102E0000750A80E090E0892B09F4E8CB0E94B505B3
:102E1000882309F4DBCB0E940000D8CB6EEB71E075
:102E2000CE0101960E94760BBE016F5F7F4FCE01EF
:102E300007960E94E80A182FCE0101960E94750A93
:102E4000112309F466C160EC71E0CE0101960E9485
:102E5000760BBE016F5F7F4FCE0107960E94E80A96
:102E6000182FCE0101960E94750A1123D1F1BE01DF
:102E7000695F7F4FCE0101960E946D0B80E290E06A
:102E80000E94CB198C01BE016F5F7F4F0E94D30B54
:102E9000CE0101960E94750AD8015E968D919C9193
:102EA000029709F022C1B8016A5F7F4FCE010196F7
:102EB0000E946D0BCE0101960E94DD0A6B01CE01CE
:102EC00001960E94750A41E061E0C6010E94EF0D83
:102ED0000115110531F0C8010E947D0AC8010E9448
:102EE000671A63EC71E0CE0101960E94760BBE0179
:102EF0006F5F7F4FCE0107960E94E80A182FCE0120
:102F000001960E94750A1123C9F1BE01695F7F4FC6
:102F1000CE0101960E946D0B80E290E00E94CB19D9
:102F20008C01BE016F5F7F4F0E94D30BCE010196D3
:102F30000E94750AF801868D978D029709F0DAC014
:102F4000B8016A5F7F4FCE0101960E946D0BCE01E2
:102F500001960E94DD0A6B01CE0101960E94750A5E
:102F600041E060E0C6010E94EF0D0115110531F04E
:102F7000C8010E947D0AC8010E94671A66EC71E0D0
:102F8000CE0101960E94760BBE016F5F7F4FCE018E
:102F900007960E94E80A182FCE0101960E94750A32
:102FA000112309F451C0BE01695F7F4FCE01019624
:102FB0000E946D0B80E290E00E94CB197C01BE0163
:102FC0006F5F7F4F0E94D30BCE0101960E94750A5E
:102FD000D7015E968D919C91029709F090C0B70140
:102FE0006A5F7F4FCE0101960E946D0BCE01019664
:102FF0000E94DD0A1B01CE0101960E94750A810123
:103000000D5F1F4FC80117FF02C081509C4F692FF1
:103010006595659589E090E00E94E00D17FF02C07C
:103020000D5F1F4F1595079515950795602F81E04A
:1030300090E00E94E00DE114F10431F0C7010E941C
:103040007D0AC7010E94671A69EC71E0CE01019602
:103050000E94760BBE016F5F7F4FCE0107960E94E4
:10306000E80A182FCE0101960E94750A112309F46F
:10307000C4CEBE01695F7F4FCE0101960E946D0BE9
:1030800080E290E00E94CB198C01BE016F5F7F4F00
:103090000E94D30BCE0101960E94750AF801868D1D
:1030A000978D029789F5B8016A5F7F4FCE0101962F
:1030B0000E946D0BCE0101960E94DD0AF62ECE0114
:1030C00001960E94750A6F2D82E090E00E94E00D4B
:1030D0000115110531F0C8010E947D0AC8010E9446
:1030E000671AF0E0E0E0099588CE80E091E00E9468
:1030F000550AEECE89ED90E00E94550A36CF82EB5C
:1031000090E00E94550A97CF8DE890E00E94550A02
:10311000DFCF86E790E0D6CD80ED92E00E94750A81
:103120008BE093E00C94750AFC0188279927E894BA
:1031300021912032E9F3293010F02E30C8F32B32E0
:1031400041F02D3239F4689404C00E941A19820F9C
:10315000911D219120532A30C0F31EF49095819542
:103160009F4F08951F93FC0199278827BC01E8947D
:1031700011911032E9F3193010F01E30C8F31B32F0
:1031800051F01D3249F4689406C00E940519610F80
:10319000711D811D911D119110531A30B0F33EF431
:1031A00090958095709561957F4F8F4F9F4F1F91A0
:1031B000089549E153E00E94DE180895FA01A191B3
:1031C000B081009719F41097E1F0CD01DC01CD0139
:1031D0000D90002011F4C00113C0FB0121912223A6
:1031E00019F02015D9F7F3CFFB012191201519F41F
:1031F0001E92119606C02223C1F70D900020A1F760
:10320000D001FA01A193B0830895592F482F372F89
:10321000262F660F771F881F991F660F771F881F3D
:10322000991F620F731F841F951F660F771F881FDA
:10323000991F08957AE0979F902D879F802D910D7B
:103240001124089591110C942B19803219F0895092
:103250008550C8F70895992788270895F999FECFD2
:1032600092BD81BDF89A992780B50895262FF999C6
:10327000FECF1FBA92BD81BD20BD0FB6F894FA9A59
:10328000F99A0FBE019608952F923F924F925F9246
:103290006F927F928F929F92AF92BF92CF92DF9266
:1032A000EF92FF920F931F93CF93DF93CDB7DEB7CB
:1032B000CA1BDB0B0FB6F894DEBF0FBECDBF09945F
:1032C0002A88398848885F846E847D848C849B84B6
:1032D000AA84B984C884DF80EE80FD800C811B81C4
:1032E000AA81B981CE0FD11D0FB6F894DEBF0FBEF3
:1032F000CDBFED010895AA1BBB1B51E107C0AA1F5A
:10330000BB1FA617B70710F0A61BB70B881F991F86
:103310005A95A9F780959095BC01CD01089597FB2A
:10332000072E16F4009407D077FD09D00E947B1970
:1033300007FC05D03EF4909581959F4F08957095B8
:1033400061957F4F0895A1E21A2EAA1BBB1BFD01B8
:103350000DC0AA1FBB1FEE1FFF1FA217B307E40774
:10336000F50720F0A21BB30BE40BF50B661F771FCC
:10337000881F991F1A9469F76095709580959095AC
:103380009B01AC01BD01CF010895EE0FFF1F059019
:10339000F491E02D09940F931F93CF93DF93823024
:1033A000910510F482E090E0E0911D03F0911E037E
:1033B00030E020E0B0E0A0E0309799F4211531052D
:1033C00009F44AC0281B390B24303105D8F58A810D
:1033D0009B816115710589F1FB0193838283FE0155
:1033E00011C0408151810281138148175907E0F0D3
:1033F0004817590799F4109761F012960C93129799
:1034000013961C933296CF01DF91CF911F910F91AC
:10341000089500931D0310931E03F4CF2115310569
:1034200051F04217530738F0A901DB019A01BD01A1
:10343000DF01F801C1CFEF01F9CF90931E03809314
:103440001D03CDCFFE01E20FF31F81939193225014
:10345000310939832883D7CF20911B0330911C0376
:10346000232B41F4209106013091070130931C0376
:1034700020931B0320910401309105012115310592
:1034800041F42DB73EB74091080150910901241B2A
:10349000350BE0911B03F0911C03E217F307A0F436
:1034A0002E1B3F0B2817390778F0AC014E5F5F4F9A
:1034B0002417350748F04E0F5F1F50931C034093AD
:1034C0001B03819391939FCFF0E0E0E09CCFCF93DB
:1034D000DF930097E9F0FC01329713821282A091EA
:1034E0001D03B0911E03ED0130E020E01097A1F420
:1034F00020813181820F931F20911B0330911C0387
:103500002817390709F061C0F0931C03E0931B03EF
:10351000DF91CF910895EA01CE17DF07E8F54A81E0
:103520005B819E0141155105B1F7E901FB83EA83F7
:1035300049915991C40FD51FEC17FD0761F48081A3
:1035400091810296840F951FE90199838883828176
:1035500093819B838A83F0E0E0E012968D919C91A9
:1035600013970097B9F52D913C911197CD010296D3
:10357000820F931F20911B0330911C0328173907DA
:1035800039F6309751F510921E0310921D03B09337
:103590001C03A0931B03BCCFD383C2834081518102
:1035A000840F951FC817D90761F44E5F5F4F88815C
:1035B0009981480F591F518340838A819B8193834E
:1035C00082832115310509F0B0CFF0931E03E093FB
:1035D0001D039ECFFD01DC01C0CF13821282D7CF25
:1035E000B0E0A0E0E6EFFAE10C9446198C010097F8
:1035F00051F4CB010E94CB198C01C801CDB7DEB7C5
:10360000E0E10C946219FC01E60FF71F9C012250C7
:103610003109E217F30708F49DC0D901CD91DC917F
:103620001197C617D70798F0C530D10530F3CE01F2
:1036300004978617970708F3C61BD70B2297C193E9
:10364000D1936D937C93CF010E94671AD6CF5B0113
:10365000AC1ABD0A4C018C0E9D1EA0911D03B091A9
:103660001E03512C412CF12CE12C109731F5809147
:103670001B0390911C038815990509F05CC0461640
:10368000570608F058C080910401909105010097F9
:1036900041F48DB79EB74091080150910901841BF8
:1036A000950BE817F90708F055C0F0931C03E09359
:1036B0001B03F90171836083A0CF8D919C911197B9
:1036C00012966C90129713967C901397A815B905D3
:1036D00059F56C0142E0C40ED11CCA14DB0420F180
:1036E000AC014A195B09DA011296159780F06282E3
:1036F000738251834083D9016D937C93E114F1046B
:1037000071F0D7011396FC93EE93129776CF229621
:103710008C0F9D1FF90191838083F301EFCFF0930C
:103720001E03E0931D0369CF4816590608F42C01C7
:103730007D01D3019ACFCB010E94CB197C01009768
:1037400049F0AE01B8010E94BA1BC8010E94671A75
:10375000870153CF10E000E050CFFB01DC0104C033
:103760008D910190801921F441505040C8F7881B79
:10377000990B0895FB01DC0102C001900D924150AC
:103780005040D8F70895FB01DC018D91019080191C
:103790000110D9F3990B0895FB01DC0101900D9202
:1037A0000020E1F70895FB01DC014150504030F06A
:1037B0008D910190801919F40020B9F7881B990B9D
:1037C0000895FB01DC014150504048F001900D92FA
:1037D0000020C9F701C01D9241505040E0F7089504
:1037E000FB0151915523A9F0BF01DC014D91451713
:1037F0004111E1F759F4CD010190002049F04D91BC
:1038000040154111C9F3FB014111EFCF81E090E078
:103810000197089511E0C3E6D1E004C0FE010E94C3
:0E382000C5192196C436D107C9F7F894FFCF19
:10382E004A054A0500001F03800003000000040043
:10383E00050006000700080009000A00000000004D
:10384E0000000B0000000E000F011001110112010B
:10385E001301140100000000000001000109000026
:10386E000200321D008000000000EB054B057805BC
:10387E005306A90587059B050D0A0054545F535442
:10388E004F503A2000302E302E31002E00526F73E2
:10389E0073636F6520547261696E204D61726B6C3B
:1038AE00696E2037313836204465636F6465723A2D
:1038BE002000444343204261736520416464726575
:1038CE0073733A2000496E697420446F6E65003C34
:1038DE005A3E003C443E003C3F3E003C3E003C0015
:0C38EE003C43003C54003C41003C5000B6
:00000001FF
