:100000000C94DD010C9496100C946F100C94050266
:100010000C9405020C9405020C9405020C94050244
:100020000C9405020C9405020C9405020C94050234
:100030000C9405020C9405020C9405020C94050224
:100040000C9425100C9405020C94E3100C94BD1034
:100050000C9405020C9405020C9405020C94050204
:100060000C9405020C94050220204D6F76653A2011
:100070000020204469666620537465703A20002091
:10008000204C61737420537465703A2000426163A0
:100090006B0046726F6E7400204020537465703A96
:1000A000200020506F736974696F6E3A20004D6FA5
:1000B00076696E6720746F2000204443432061649A
:1000C0006472657373203A0070726F636573735462
:1000D00075726E6F7574436F6D6D616E643A20005A
:1000E000466F756E6420486F6D6520506F7369743C
:1000F000696F6E202D2053657474696E6720437597
:100100007272656E7420506F736974696F6E2074BB
:100110006F203000486F6D6520506F736974696F90
:100120006E204E4F5420464F554E44202D2043689C
:1001300065636B2053656E736F72204861726477DC
:100140006172650046696E64696E6720486F6D650F
:100150002053656E736F722E2E2E2E006E6F746993
:1001600066794463634163635475726E6F7574425C
:100170006F6172643A200053657474696E6720750C
:100180007020444343204465636F726465722E2E71
:100190002E00204261636B3A20002046726F6E741D
:1001A0003A200044434320416464723A200053687B
:1001B0006F72746573742044697374616E63650053
:1001C0004D6F76656D656E742053747261746567EA
:1001D000793A200046756C6C20526F746174696FB7
:1001E0006E2053746570733A20002E002E00566501
:1001F0007273696F6E3A2000444343205475726EE7
:100200007461626C6520436F6E74726F6C206F66F0
:100210002052545F45585F5475726E7461626C650C
:1002200020626F617264005374657070657220693A
:10023000732072756E6E696E672C2069676E6F72BF
:10024000696E67203C433E00206164647220002098
:1002500073746570732C2061637469766974792096
:100260004944200054657374206D6F7665200053F7
:1002700074657020636F756E7420746F6F206C618D
:100280007267652C20726566657220746F207468D1
:100290006520646F63756D656E746174696F6E203F
:1002A000666F72206C61726765207374657020637D
:1002B0006F756E7473203E203332373637004361DA
:1002C0006E6E6F742070726F766964652061206E47
:1002D00065676174697665207374657020636F75F6
:1002E0006E74005374657070657220697320727546
:1002F0006E6E696E672C2069676E6F72696E67201B
:100300003C4D3E00526573657420666163746F7284
:10031000792064656661756C742043567300203DD6
:1003200020004356203A2000203D20004356002064
:100330003D2000435600203D2000435600435673A5
:10034000206172653A0044697361626C6520537480
:100350006570706572204F7574707574730000005D
:100360000000240027002A000000000025002800CB
:100370002B000000000023002600290004040404D0
:10038000040404040202020202020303030303033F
:10039000010204081020408001020408102001021C
:1003A00004081020000000080002010000030407F8
:1003B0000000000000000000151111241FBECFEF47
:1003C000D8E0DEBFCDBF24E0A4E6B3E001C01D92BB
:1003D000A63BB207E1F713E0A0E0B1E0E4E5FDE3FE
:1003E00002C005900D92A436B107D9F711E0CDED0A
:1003F000D1E004C02197FE010E940B1BCC3DD10728
:10040000C9F70E942D120C94A81E0C9400000F93A3
:100410001F9320E030E0A90160918404709185046D
:1004200080918604909187040E94451981111AC019
:1004300081E0009180041091810420918204309128
:10044000830440917C0450917D0460917E047091FE
:100450007F04041715072607370709F480E01F916A
:100460000F91089581E0FBCF8230F8F4E82FF0E09F
:10047000EE0FFF1FED5FFE4F22E333E03183208359
:10048000813041F0809169008C7F682B6093690016
:10049000E89A089580916900837F660F771F660F41
:1004A000771F682B60936900E99A0895833081F083
:1004B00028F4813099F08230A9F008958730A9F0AE
:1004C0008830C9F08430B1F4809180008F7D03C002
:1004D000809180008F7780938000089584B58F7716
:1004E00084BD089584B58F7DFBCF8091B0008F7758
:1004F0008093B00008958091B0008F7DF9CFCF93A5
:10050000DF93E9EAF3E08491E5E9F3E0D491E1E8EF
:10051000F3E0C491CC23A1F081110E945602EC2F8C
:10052000F0E0EE0FFF1FEE58FC4FA591B491EC9157
:10053000ED2381E090E009F480E0DF91CF91089510
:1005400080E090E0FACF1F93CF93DF93282F30E025
:10055000F901EC55FC4F8491F901E057FC4FD4911F
:10056000F901E458FC4FC491CC23A9F0162F811156
:100570000E945602EC2FF0E0EE0FFF1FE859FC4FEF
:10058000A591B4918FB7F894EC91111108C0D09552
:10059000DE23DC938FBFDF91CF911F910895DE2B77
:1005A000F8CFCF93DF9390E0FC01E057FC4F24910C
:1005B00084589C4FFC0184918823C9F090E0880FF7
:1005C000991FFC01E25AFC4FA591B491FC01E85936
:1005D000FC4FC591D49161110DC09FB7F8948C91D7
:1005E000209582238C938881282328839FBFDF91C5
:1005F000CF910895623051F49FB7F8943C91822FC7
:10060000809583238C93E8812E2BEFCF8FB7F894BE
:10061000EC912E2B2C938FBFEACF3FB7F8948091AB
:10062000C3039091C403A091C503B091C60326B53E
:10063000A89B05C02F3F19F00196A11DB11D3FBF1A
:10064000BA2FA92F982F8827BC01CD01620F711DE9
:10065000811D911D42E0660F771F881F991F4A95E3
:10066000D1F70895FF920F931F93CF93DF930E94CA
:100670000D0320916A0330916B03EB01C21BD30B76
:1006800020916E0330916F03C217D30708F45FC047
:1006900040917503509176034130510561F0E0912E
:1006A0009E03F0919F0320813091A003232330917A
:1006B0006C0323134CC070936B0360936A03009127
:1006C0007003109171034230510509F413C1433096
:1006D000510509F44EC14130510561F4809169031F
:1006E000813009F447C0C8F1833009F482C08430F6
:1006F00009F4C9C08091750390917603019739F18F
:10070000C017D10708F06FC1809167038F5F809396
:1007100067038B30E0F081E090E090937603809364
:10072000750361E070E080919C030E943402109296
:100730006C031092690382E590E0909371038093BB
:10074000700383E290E090936F0380936E03DF91D8
:10075000CF911F910F91FF900895C017D10730F4EA
:1007600081E080936903C0936803C4CF84E08093E1
:100770006903C0CFC017D107D0F5109269038091EB
:1007800067038F5F80936703209168038C2F0C2E83
:10079000000C990B821B910927FD939597FF03C0CD
:1007A000919581959109499794F210927603109250
:1007B000750382E990E0909371038093700382E562
:1007C00090E090936F0380936E0310926703F09014
:1007D0006D036F2D70E080919C030E943402809124
:1007E000A00393E0F91227C080936C0383CF83E0CA
:1007F000BECFC017D10708F510927603109275038B
:1008000082E990E0909371038093700382E590E019
:1008100090936F0380936E0310926703F0906D03C3
:100820006F2D70E080919C030E9434028091A003A0
:1008300033E0F316C9F280E0D7CF90916D03933087
:1008400009F482E080936D0382E090E09093760358
:100850008093750382E990E0909371038093700315
:1008600082E590E090936F0380936E0310927B0378
:100870008091670380937C031092780310927A032F
:1008800010927903CBCFC017D107A8F4109276034A
:100890001092750382E990E0909371038093700346
:1008A00082E590E090936F0380936E03109267034C
:1008B000109278038CCF82E090E09093760380933F
:1008C000750382E990E0909371038093700382E551
:1008D00090E090936F0380936E0310927B0380915E
:1008E000670380937C031092780310927A0310922E
:1008F00079036DCF909178039F5F909378038091F7
:100900007903880FC017D107E0F0809379039830FE
:1009100009F0F6CEE0917B03E630A9F4109276035D
:100920001092750382E990E09093710380937003B5
:1009300082E590E090936F0380936E0310927803AA
:10094000D9CE8160E2CF83E090E0909376038093EC
:10095000750381E08E0F80937B0390917903F0E023
:10096000EB58FC4F908780917A03892780937A0314
:10097000C1CEC017D10738F51092760310927503D7
:100980001092780382E990E0909371038093700352
:1009900082E590E090936F0380936E0380917A03D9
:1009A0008111B2CE88E0EBE7F3E0A3E8B3E0019079
:1009B0000D928A95E1F7809177038F5F809377039B
:1009C0001092670397CE80917B03863009F4A6CFFF
:1009D00082E090E090937603809375031092780301
:1009E0001092790387CE10926703B1CE80E090E039
:1009F000892B11F00C94000008950895AF92BF92D6
:100A0000CF92DF92EF92FF920F931F93CF93DF93DA
:100A10006C017B018B01040F151FEB015E01AE1809
:100A2000BF08C017D10759F06991D601ED91FC912B
:100A30000190F081E02DC6010995892B79F7C50158
:100A4000DF91CF911F910F91FF90EF90DF90CF90AA
:100A5000BF90AF900895FC01538D448D252F30E059
:100A6000842F90E0821B930B541710F0CF960895BB
:100A700001970895FC01918D828D981761F0A28DE8
:100A8000AE0FBF2FB11D5D968C91928D9F5F9F73AE
:100A9000928F90E008958FEF9FEF0895FC01918D64
:100AA000828D981731F0828DE80FF11D858D90E0D1
:100AB00008958FEF9FEF0895FC01918D228D892F6E
:100AC00090E0805C9F4F821B91098F739927089556
:100AD00087EC93E00E945C0521E0892B09F420E07B
:100AE000822F089580E090E0892B29F00E9468050C
:100AF00081110C9400000895FC01A48DA80FB92F5A
:100B0000B11DA35ABF4F2C91848D90E001968F7335
:100B10009927848FA689B7892C93A089B1898C9154
:100B2000837080648C93938D848D981306C00288A3
:100B3000F389E02D80818F7D80830895EF92FF926D
:100B40000F931F93CF93DF93EC0181E0888F9B8DF0
:100B50008C8D98131AC0E889F989808185FF15C0AA
:100B60009FB7F894EE89FF896083E889F9898081CD
:100B70008370806480839FBF81E090E0DF91CF919C
:100B80001F910F91FF90EF900895F62E0B8D10E0BE
:100B90000F5F1F4F0F731127E02E8C8D8E110CC02D
:100BA0000FB607FCFACFE889F989808185FFF5CF78
:100BB000CE010E947C05F1CFEB8DEC0FFD2FF11DD6
:100BC000E35AFF4FF0829FB7F8940B8FEA89FB89B5
:100BD00080818062CFCF0F931F93CF93DF938C01DF
:100BE000D0E0C0E0F801EC0FFD1F6491662341F0F6
:100BF00087EC93E00E949E05892B11F02196F2CF9D
:100C0000CE01DF91CF911F910F910895CF93DF9384
:100C1000EC01888D8823B9F0AA89BB89E889F98914
:100C20008C9185FD03C0808186FD0DC00FB607FC49
:100C3000F7CF8C9185FFF2CF808185FFEDCFCE017C
:100C40000E947C05E9CFDF91CF910895CF93C82F03
:100C500080E090E0892B51F080918D038C1731F06A
:100C600081E0C11101C080E00E940000C0938D03AB
:100C7000CC2331F12FB7F8948091BF039091C0033A
:100C8000A091C103B091C2032FBF482F392F2A2F43
:100C90008B2F40938E0330938F0320939003809388
:100CA000910380E090E0892B81F080918D038C1777
:100CB00061F081E0C11101C080E0CF910C9400008F
:100CC00040E030E020E080E0E4CFCF91089580E084
:100CD00090E0892B29F08091A40383FD0C940000FF
:100CE0000895CF93DF93FC012781222359F1EC0172
:100CF00061E080850E94D10261E089850E94D10275
:100D00008F81843011F08830B1F461E08A850E94CF
:100D1000D10261E08B850E94D1028FA58F3F91F0B7
:100D200061E00E94D1026EA581E068278FA5DF9166
:100D3000CF910C94A302833011F0863071F761E0FB
:100D40008A85E9CFDF91CF910895CF93DF93FC019E
:100D500027812223A9F0EC010190F081E02D02848B
:100D6000F385E02D60E009958FA58F3F49F061E0A4
:100D70000E94D1026EA58FA5DF91CF910C94A302A2
:100D8000DF91CF910895DC01ED91FC9122853385AF
:100D90004770552766277727415051096109710926
:100DA000473051056105710560F4FA01E652F94FCB
:100DB0000C940B1BE406E606E806EA06EC06EE06D3
:100DC000F00661E0F901099465E0FCCF64E0FACF38
:100DD00066E0F8CF62E0F6CF6AE0F4CF68E0F2CFE9
:100DE00069E0F0CFCF93DF93EC01CB01BA0126E0AD
:100DF00030E040E050E00E94EC1A6230710581055D
:100E0000910589F16CF46115710581059105D1F0A9
:100E10006130710581059105F9F0DF91CF91089559
:100E2000643071058105910561F124F1653071052A
:100E30008105910591F7E881F9810284F385E02D20
:100E400066E006C0E881F9810284F385E02D64E064
:100E5000CE01DF91CF910994E881F9810284F38575
:100E6000E02D65E0F5CFE881F9810284F385E02D7E
:100E700061E0EECFE881F9810284F385E02D63E043
:100E8000E7CFE881F9810284F385E02D62E0E0CFCD
:100E9000DC01ED91FC910284F385E02D4370552730
:100EA00066277727423051056105710571F043309F
:100EB00051056105710559F0413051056105710514
:100EC00011F065E0099466E0FDCF6AE0FBCF69E0D0
:100ED000F9CFCF93DF93EC01CB01BA0123E030E0EF
:100EE00040E050E00E94EC1A6130710581059105E7
:100EF00099F06230710581059105A9F0672B682B87
:100F0000692BC1F4E881F9810284F385E02D64E066
:100F1000CE01DF91CF910994E881F9810284F385B4
:100F2000E02D61E0F5CFE881F9810284F385E02DC1
:100F300062E0EECFDF91CF910895DC01ED91FC915D
:100F40000284F385E02D43705527662777274230CA
:100F500051056105710571F0433051056105710559
:100F600059F0413051056105710511F062E00994B5
:100F700063E0FDCF61E0FBCF60E0F9CFCF93DF937B
:100F8000EC01E881F9810284F385E02D8A8160E03B
:100F9000811162E0CE010995E881F9810284F3852F
:100FA000E02D8A8161E0811163E0CE0109958CA575
:100FB0009DA58230910538F0880F991F880F991FE1
:100FC00005970197F1F7E881F9810284F385E02D17
:100FD0008A8160E0811162E0CE01DF91CF910994B6
:100FE000CF93DF93EC0120E030E0A901688D798D8B
:100FF0008A8D9B8D0E943A1C18162CF4E8A9F9A939
:10100000DF91CF910994EAA9FBA9FACFCF92DF92A1
:10101000EF92FF920F931F93CF93DF93DC0117960C
:10102000CC91C43039F0C83059F1C33019F0C63012
:1010300049F1C2E08C01085F1F4FF12CE12CC62E54
:10104000D12CD1E0F8016481C6010E2C02C0959527
:1010500087950A94E2F780FD6D270F5F1F4F80810F
:101060000E94A302BFEFEB1AFB0AEC1658F3DF91C4
:10107000CF911F910F91FF90EF90DF90CF90089547
:10108000C4E0D8CFC3E0D6CFDC011796EC91179718
:10109000E93008F038C0F0E0E05BF74F0C940B1B30
:1010A00059085F0865086B0871088308770883088A
:1010B0007D08ED91FC910684F785E02D0994ED9172
:1010C000FC910088F189E02DF9CFED91FC91028827
:1010D000F389E02DF3CFED91FC910488F589E02DA3
:1010E000EDCFED91FC910688F789E02DE7CFED91EA
:1010F000FC91008CF18DE02DE1CFED91FC91028C03
:10110000F38DE02DDBCF08954F925F926F927F9227
:101110008F929F92AF92BF92CF92DF92EF92FF9207
:101120000F931F93CF93DF93EC01CC88DD88EE887B
:10113000FF8888899989AA89BB89C81AD90AEA0AC5
:10114000FB0A688D798D8A8D9B8D9B01AC010E9475
:10115000AB194B015C0168A179A18AA19BA19B01FC
:10116000AC010E94261B9B01AC01C501B4010E9489
:10117000921B0E94041CC114D104E104F10409F083
:10118000B6C062307105810591050CF0D0C01B829C
:101190001C821D821E82188E198E1A8E1B8E1CAA0E
:1011A0001DAA1EAA1FAAC12CD12C7601C701B60107
:1011B000DF91CF911F910F91FF90EF90DF90CF9033
:1011C000BF90AF909F908F907F906F905F904F9067
:1011D00008951016110612061306B4F46C157D0559
:1011E0008E059F051CF42A812111A1C09B01AC0131
:1011F00088279927DC01821B930BA40BB50B8CABC2
:101200009DABAEABBFAB93C00115110521053105F8
:1012100009F48DC06C157D058E059F050CF087C007
:101220008A81882309F483C0309520951095019513
:101230001F4F2F4F3F4F0CAB1DAB2EAB3FAB77C0BB
:10124000011511052105310509F471C0882499247F
:1012500054018C189D08AE08BF08681579058A05E9
:101260009B050CF064C08A81811161C0DDCFCCACDC
:10127000DDACEEACFFACA7019601C701B6010E9440
:10128000261B2B013C01C501B4010E944C1920E032
:1012900030E040E850E40E94AB1920E030E040E844
:1012A0005FE30E94261B9B01AC01C301B2010E94B7
:1012B000921B9B01AC01C701B6010E94251B3B019B
:1012C0006C01FE01E05CFF4FE080F1800281138140
:1012D0009701A8010E943A1C181614F473018601A4
:1012E000C701D8018CAF9DAFAEAFBFAF3AC00CA95C
:1012F0001DA92EA93FA91C141D041E041F040CF4D3
:1013000068CF10161106120613060CF099CF0027AD
:10131000112798010C191D092E093F096017710743
:10132000820793070CF062CF2A8121115FCF8CA82E
:101330009DA8AEA8BFA881149104A104B10409F02E
:1013400096CF88AD99ADAAADBBAD8CAF9DAFAEAF1A
:10135000BFAF81E01C141D041E041F040CF080E0CC
:101360008A833FEF831A930AA30AB30A8CAA9DAA21
:10137000AEAABFAA8CAC9DACAEACBFACC501B401EB
:101380000E940B1C6B017C01CB82DC82ED82FE8211
:10139000A501940160E074E284E799E40E94921B45
:1013A000688F798F8A8F9B8F2A812111FFCE905869
:1013B000688F798F8A8F9B8FF9CECF92DF92EF92D1
:1013C000FF92CF93DF93CCE6D4E0688D798D8A8D40
:1013D0009B8D9B01AC010E94AB196B017C0168A144
:1013E00079A18AA19BA19B01AC010E94261B9B01B4
:1013F000AC01C701B6010E94921B0E94041C6CAB99
:101400007DAB8EAB9FABCE01DF91CF91FF90EF9084
:10141000DF90CF900C9484080F931F9300917C046D
:1014200010917D0420917E0430917F04DC01CB017A
:10143000800F911FA21FB31F00918004109181049F
:10144000209182043091830480179107A207B3078B
:1014500071F08093800490938104A0938204B093F0
:1014600083048CE694E01F910F910C9484081F91E3
:101470000F910895CF92DF92EF92FF9280916F04C7
:1014800090917004A0917104B0917204892B8A2B01
:101490008B2B09F44FC00E940D036B017C018091DE
:1014A000940490919504A0919604B0919704B7018B
:1014B000A601481B590B6A0B7B0B80916F0490911E
:1014C0007004A0917104B0917204481759076A071B
:1014D0007B0780F180917C0490917D04A0917E0433
:1014E000B0917F0420916E04222309F44EC001962E
:1014F000A11DB11D80937C0490937D04A0937E0474
:10150000B0937F0440917C0450917D0460917E04EF
:1015100070917F048CE694E00E944408C092940489
:10152000D0929504E0929604F09297048CE694E0B1
:101530000E94840820E030E0A90160918404709149
:10154000850480918604909187040E944519811139
:1015500020C081E0C0908004D0908104E09082049B
:10156000F090830440917C0450917D0460917E044E
:1015700070917F04C416D506E606F70609F480E0EC
:10158000FF90EF90DF90CF9008950197A109B109E6
:10159000B1CF81E0F5CF08954F925F926F927F9225
:1015A0008F929F92AF92BF92CF92DF92EF92FF9273
:1015B0006B017C0120E030E0A9010E94451987FF02
:1015C00004C0F7FAF094F7F8F09480908C049090AF
:1015D0008D04A0908E04B0908F04A7019601C501E0
:1015E000B4010E944519882309F458C06091A004F1
:1015F0007091A1048091A2049091A3040E944C19BF
:101600002B013C01A7019601C501B4010E94921B68
:101610009B01AC01C301B2010E94AB190E94041CE2
:101620006093A0047093A1048093A2049093A304F8
:10163000A701960160E070E080E090E40E94921BB8
:101640000E94451C26E53EE04DE25FE30E94AB1997
:1016500020E034E244E759E40E94AB196093A4040B
:101660007093A5048093A6049093A704C0928C0461
:10167000D0928D04E0928E04F0928F048CE694E078
:10168000FF90EF90DF90CF90BF90AF909F908F90A2
:101690007F906F905F904F900C948408FF90EF9034
:1016A000DF90CF90BF90AF909F908F907F906F9082
:1016B0005F904F900895FC0101900020E9F7319769
:1016C000AF01481B590BBC0187EC93E00C94FE045E
:1016D0008FE292E00C945B0BCF93DF930E94EB05BB
:1016E000EC010E94680B8C0F9D1FDF91CF91089534
:1016F0008F929F92AF92BF92CF92DF92EF92FF9222
:1017000084E491E00E946C0B62E085E00E94D102CB
:1017100060E072E380E090E00E940C0A0E947F0289
:10172000892B19F00E943A0AF9CF0E947F02892B77
:1017300009F07DC08090840490908504A090860478
:10174000B090870420E030E0A901C501B4010E94F7
:101750004519882379F1A5019401C501B4010E94BE
:10176000AB196B017C0160918C0470918D048091A8
:101770008E0490918F049B01AC010E94261B9B015B
:10178000AC01C701B6010E94921B0E94041C6B01B0
:101790007C0120E030E0A901C501B4010E943A1C9F
:1017A0001816F4F5C701B6016F5F7F4F8F4F9F4F3B
:1017B0000E940C0A10927C0410927D0410927E0408
:1017C00010927F041092800410928104109282047F
:1017D000109283041092A0041092A1041092A2040B
:1017E0001092A30410926F0410927004109271046E
:1017F0001092720410928404109285041092860450
:101800001092870480EE90E00E946C0B81E0FF90C4
:10181000EF90DF90CF90BF90AF909F908F90089502
:10182000C701B6016095709580959095C1CF84E110
:1018300091E00E946C0B80E0EACF8F929F92AF9272
:10184000BF920F931F93CF93DF93CDB7DEB7A197CE
:101850000FB6F894DEBF0FBECDBF19A2423008F418
:101860004AE08E010F5D1F4F842E912CB12CA12CCC
:10187000A50194010E94CA1AE62FB901CA01EA30F3
:10188000F4F4E05DD801EE938D01232B242B252B5E
:1018900079F790E080E0109719F0CD010E945B0B82
:1018A000A1960FB6F894DEBF0FBECDBFDF91CF91EA
:1018B0001F910F91BF90AF909F908F900895E95C1A
:1018C000E1CFCF92DF92EF92FF92CF93DF936B0144
:1018D0007C016DE287EC93E00E949E05EC01662797
:1018E0007727CB016C197D098E099F094AE00E9478
:1018F0001D0C8C0F9D1FDF91CF91FF90EF90DF901B
:10190000CF900895CF93DF93462F682F70E090E03B
:1019100080E00E941D0CEC010E94680B8C0F9D1F43
:10192000DF91CF910895CF93DF930E945B0BEC0181
:101930000E94680B8C0F9D1FDF91CF9108958FE659
:101940008093660382E392E00E945B0B6AE070E0A2
:10195000809166030C94820C1F93CF93DF93EC016C
:10196000162F089779F4662319F10E949F0C80E0E6
:1019700090E0892BB9F0612FCE01DF91CF911F91BB
:101980000C94000080E090E0892BA9F781E0C1155C
:1019900094E0D90708F080E0111105C0DF91CF91E4
:1019A0001F91089581E027972297C0F780E0F6CF36
:1019B00080E090E0892BF9F681E0F0CFBC01990F2F
:1019C000880B990B97FD0C94610C4AE00C941D0C4C
:1019D0001F93CF93DF93EC01162F8BE492E00E94CC
:1019E0005B0BBE0190E080E04AE00E941D0C80E6A7
:1019F00092E00E945B0B6AE070E0812FDF91CF9153
:101A00001F910C94820CDF92EF92FF920F931F9321
:101A1000CF93DF937C01162FD42E88EC90E00E94A8
:101A2000EB0589EB90E00E94EB05B70190E080E0C8
:101A30004AE00E941D0C0E94680B20910101309128
:101A4000020140910001EDE0F1E0D0E0C0E00C2F98
:101A5000808191818E159F0509F082C02E153F056A
:101A600019F4411709F47CC0DD2009F479C0909382
:101A7000020180930101109300018EEA90E00E9420
:101A8000EB058DE890E0112311F082E990E00E94CF
:101A9000EB0582EA90E00E94EB05602F70E090E099
:101AA00080E04AE00E941D0C88E990E00E94EB056E
:101AB0008CE694E00E9471068AE08C9FF0018D9F75
:101AC000F00D1124E35FFE4F112309F440C00281A1
:101AD0001381C8010E94DE0C8FE790E00E94EB05A5
:101AE000609164037091650390E080E04AE00E9499
:101AF0001D0C8091640390916503E801C81BD90B0C
:101B000081E790E00E94EB05CE010E94DE0CC13817
:101B10008CE0D807FCF0D95188E690E00E94EB05F4
:101B2000CE010E94DE0C0E94680BBE01DD0F880B07
:101B3000990B0E940C0A1093650300936403DF91D4
:101B4000CF911F910F91FF90EF90DF900895068144
:101B50001781BFCFC03883EFD807F4F6D75EDCCF4C
:101B600021963A96C831D10509F071CFE8CF0F938D
:101B70001F93CF93DF93142F022FEC01C150D04C51
:101B8000CC0FDD1FCC0FDD1F70E06F5F7F4FC60FE6
:101B9000D71F8CE591E00E94EB05BE0190E080E04C
:101BA0004AE00E941D0C6CE287EC93E00E949E05C7
:101BB000612F70E090E080E04AE00E941D0C6CE232
:101BC00087EC93E00E949E0560E170E0802F0E9408
:101BD000820C402F612FCE01DF91CF911F910F9189
:101BE0000C94030D0E942606EBE8F3E081E0878366
:101BF0001086E4E9F3E088E0DF011D928A95E9F7B9
:101C000008950C94361D20E030E0232B11F00C9445
:101C100000000C94691ACF93DF932091A1033091B7
:101C2000A2032F3F320721F0C901DF91CF91089520
:101C30008091A40387FF2BC086FF0FC089E090E04E
:101C40000E94030EC82F81E090E00E94030E9C2F9B
:101C50009093A2038093A10315C089E090E00E94B5
:101C6000030EC82F81E090E00E94030E90E4C99F0C
:101C700090011124207C31708F73282B3093A203A4
:101C80002093A1038091A1039091A203CECF85FF61
:101C90000CC081E190E00E94030EC82F82E190E029
:101CA0000E94030EC05CDD0BD2CF81E090E00E9469
:101CB000030E90E0CDCF1F93CF93DF93EC01162F4F
:101CC00083319105C8F48131910528F48130910563
:101CD00011F0099731F48FEF9FEF9093A203809357
:101CE000A10380E090E0892BA9F0612FCE01DF9164
:101CF000CF911F910C9400004D9799F7177F109387
:101D0000A40380918B038F73912F907C892B8093F8
:101D10008B03E1CFCE010E94691A1817A1F0612F41
:101D2000CE010E94711A612FCE010E94E80C80E062
:101D300090E0892B41F080918B0384FD04C0612FDA
:101D4000CE010E940000CE01DF91CF911F910C9433
:101D5000691ABF92CF92DF92EF92FF920F931F9377
:101D6000CF93DF938B01B42E690182FF23C083FFE1
:101D700017C061E0C8010E94AC0C8823D9F16B2D1B
:101D8000C8010E945B0E8B1135C0F601DF91CF9127
:101D90001F910F91FF90EF90DF90CF90BF9009942B
:101DA00060E0C8010E94AC0C882321F1C8010E94A8
:101DB000030EE9CF842F8770C1E0D0E07E0101C01F
:101DC000EE0C8A95EAF7D42FD870CB010E94030E4F
:101DD000C82FB4FE1CC061E0C8010E94AC0C88236F
:101DE00049F0DD2389F0CE296C2FC8010E945B0EDB
:101DF0008C1759F2DF91CF911F910F91FF90EF90C7
:101E0000DF90CF90BF900895E094CE21EDCF60E0B9
:101E1000C8010E94AC0C882369F3CE21DD2319F0A0
:101E2000C111B3CFE7CFCC2309F4AFCFE3CFCF922B
:101E3000DF92EF92FF920F931F93CF93DF937C017A
:101E40006B01C42F122FD42FD07E80918B0387FF7C
:101E50002CC0D03EC1F580918C038823A1F190E085
:101E60000E94030ED82F80918C0390E001960E946F
:101E7000030E982F8D2FE816F90629F56C2F70E0C8
:101E8000762F662766277370612B6F5F7F4F27E67B
:101E900036E0402F8C2FDF91CF911F910F91FF9053
:101EA000EF90DF90CF900C94A90E80FD36C0D03615
:101EB00009F46DC088F4D03209F44BC0D03409F471
:101EC00066C0DD2399F1DF91CF911F910F91FF90B3
:101ED000EF90DF90CF900895D03A09F490C0B0F41D
:101EE000D03889F780E090E02C2F2F7141E050E04E
:101EF000892B49F3B601C701DF91CF911F910F9153
:101F0000FF90EF90DF90CF900C940000D03C09F44C
:101F100084C0D03E09F4B2CFD6CF0E940B0E8E15EE
:101F20009F0529F2E114F10411F2CDCF8C2F8E70B0
:101F300051F680E090E0892B31F28C2F8170DF9197
:101F4000CF911F910F91FF90EF90DF90CF900C9465
:101F50000000CF71CF3109F0B6CF80E090E0892B3F
:101F600009F4B1CF412F4F7771F0413071F0111F5B
:101F70001127111F212F30E00FE710E0B601C70134
:101F80000E940000A0CF41E0F2CF40E0F0CF80E01F
:101F900090E0892BC1F02C2F30E08C2F8F71813095
:101FA00029F030F0803121F08131F9F440E001C0B6
:101FB00041E025FB222720F90DE110E030E0B601D9
:101FC000C7010E94000080E090E0892B09F47BCFDC
:101FD0004C2FB601C701DF91CF911F910F91FF9058
:101FE000EF90DF90CF900C940000C901880F991FEB
:101FF0008E71C4FB442740F9482B4250DACF80E071
:1020000090E0892B09F45FCF2C2F2F7043E050E034
:10201000C4FF70CF42E050E06DCFCF71CE3161F0A0
:10202000CF3109F050CF80E090E0212F45E050E023
:10203000892B09F05FCF47CF80E090E0212F44E06B
:1020400050E0892B09F056CF3ECF1F920F920FB66A
:102050000F9211242F933F938F939F93AF93BF932E
:102060008091BF039091C003A091C103B091C203BE
:102070003091BE0323E0230F2D3758F50196A11DA3
:10208000B11D2093BE038093BF039093C003A09320
:10209000C103B093C2038091C3039091C403A09184
:1020A000C503B091C6030196A11DB11D8093C30362
:1020B0009093C403A093C503B093C603BF91AF919F
:1020C0009F918F913F912F910F900FBE0F901F9076
:1020D000189526E8230F0296A11DB11DD2CF1F929D
:1020E0000F920FB60F9211242F933F934F935F934C
:1020F0006F937F938F939F93AF93BF93EF93FF93D0
:10210000E0910501F09106010995FF91EF91BF91D2
:10211000AF919F918F917F916F915F914F913F917F
:102120002F910F900FBE0F901F9018951F920F9236
:102130000FB60F9211242F933F934F935F936F939A
:102140007F938F939F93AF93BF93EF93FF93E09110
:102150000301F09104010995FF91EF91BF91AF91B7
:102160009F918F917F916F915F914F913F912F91AF
:102170000F900FBE0F901F9018951F920F920FB6E1
:102180000F9211242F933F934F935F936F937F93FD
:102190008F939F93AF93BF93EF93FF9387EC93E05D
:1021A0000E947C05FF91EF91BF91AF919F918F911C
:1021B0007F916F915F914F913F912F910F900FBE43
:1021C0000F901F9018951F920F920FB60F92112427
:1021D0002F938F939F93EF93FF93E091D703F09109
:1021E000D8038081E091DD03F091DE0382FD1BC006
:1021F00090818091E0038F5F8F732091E1038217BC
:1022000041F0E091E003F0E0E953FC4F958F8093BB
:10221000E003FF91EF919F918F912F910F900FBE4F
:102220000F901F9018958081F4CFCF92DF92EF929C
:10223000FF921092CA031092C90388EE93E0A0E0C7
:10224000B0E08093CB039093CC03A093CD03B093E5
:10225000CE0381E092E09093C8038093C70385EC9E
:1022600090E09093D4038093D30384EC90E0909318
:10227000D6038093D50380EC90E09093D8038093AD
:10228000D70381EC90E09093DA038093D90382EC3A
:1022900090E09093DC038093DB0386EC90E09093D6
:1022A000DE038093DD031092E0031092E1031092AD
:1022B000E2031092E30383E192E090936D04809334
:1022C0006C0481E08093730410927C0410927D046E
:1022D00010927E0410927F04109280041092810468
:1022E0001092820410928304109284041092850448
:1022F0001092860410928704109288041092890428
:1023000010928A0410928B0410928C0410928D0407
:1023100010928E0410928F04C12CD12C80E8E82EEC
:102320008FE3F82EC0929004D0929104E092920430
:10233000F092930410926F04109270041092710442
:102340001092720481E090E0909399048093980435
:102350008FEF80939B041092940410929504109236
:102360009604109297048EE0809374048FE080931B
:10237000750484E08093760485E08093770410925E
:102380009A041092A0041092A1041092A204109238
:10239000A3041092A4041092A5041092A604109213
:1023A000A7041092A8041092A9041092AA041092F3
:1023B000AB04C092AC04D092AD04E092AE04F092B3
:1023C000AF0410926E041092780410927904109267
:1023D0007A0410927B048CE694E00E947106C70197
:1023E000B6010E94CC0AA701960160918804709101
:1023F000890480918A0490918B040E944519882356
:1024000039F1C0928804D0928904E0928A04F09253
:102410008B0480E094E2A4E7B9E48093AC04909349
:10242000AD04A093AE04B093AF048091A00490914A
:10243000A104A091A204B091A304181619061A06CB
:102440001B0634F4FF90EF90DF90CF900C94DD09E1
:10245000FF90EF90DF90CF900895CF93DF93CDB7AB
:10246000DEB7789484B5826084BD84B5816084BD14
:1024700085B5826085BD85B5816085BD80916E0022
:10248000816080936E001092810080918100826053
:102490008093810080918100816080938100809190
:1024A00080008160809380008091B100846080937F
:1024B000B1008091B00081608093B00080917A007B
:1024C000846080937A0080917A00826080937A00A1
:1024D00080917A00816080937A0080917A00806890
:1024E00080937A001092C100E091D703F091D80355
:1024F00082E08083E091D303F091D4031082E091D5
:10250000D503F091D60380E180831092DF03E09140
:10251000DB03F091DC0386E08083E091D903F09146
:10252000DA03808180618083E091D903F091DA033E
:10253000808188608083E091D903F091DA03808103
:1025400080688083E091D903F091DA0380818F7DE8
:102550008083ADB6BEB666E070E090E080E00E9499
:10256000BF1D7C0110E000E0009741F0DC011C92EF
:1025700069E672E00E94921E05E010E0C801019633
:10258000EDB7FEB7E81BF90B0FB6F894FEBF0FBE10
:10259000EDBF2DB73EB72F5F3F4F69010115110504
:1025A00009F0F4C111826FE672E0C6010E94FC18C6
:1025B0000E94B718809372036FE672E090E080E0AB
:1025C0000E94FC180E94B718809373036FE672E0B4
:1025D00090E080E00E94FC180E94B718809374037A
:1025E000E114F10419F0C7010E94361D0FB6F894EA
:1025F000BEBE0FBEADBE88EF91E00E946C0B81E7BE
:1026000092E00E945B0B8EEE91E00E94EB056091E0
:10261000720370E090E080E04AE00E941D0C8CEEB6
:1026200091E00E94EB056091730370E090E080E020
:102630004AE00E941D0C8AEE91E00E94EB056AE0E0
:1026400070E0809174030E94820C0E94680B84EDFC
:1026500091E00E94EB0580E099E10E94DE0C0E946F
:10266000680B80EC91E00E94EB058EEA91E00E94FD
:102670006C0B0DE011E083EA91E00E94EB05D801BC
:102680006D917C9190E080E04AE00E941D0C8AE907
:1026900091E00E94EB05F80162817381848195814C
:1026A0004AE00E941D0C82E991E00E94EB05D801EE
:1026B00016966D917D918D919C9119974AE00E949B
:1026C0001D0C0E94680B065F1F4FB1E00D3F1B07FA
:1026D00091F6109278041092790411E010939A0404
:1026E00080E180939B0461E00E94D10260919A0492
:1026F000612780919B040E94A30220E030E048E41F
:1027000054E4609188047091890480918A049091C6
:102710008B040E944519882339F180E090E0A8E4F9
:10272000B4E48093880490938904A0938A04B093BE
:102730008B0480E090E4ACE9B4E48093AC04909323
:10274000AD04A093AE04B093AF048091A004909127
:10275000A104A091A204B091A304181619061A06A8
:102760001B0614F40E94DD0960E070E08AE794E43F
:102770000E94CC0A20E030E046E953E460918404F2
:102780007091850480918604909187040E94451978
:102790008823E9F18090880490908904A0908A04AD
:1027A000B0908B0475016401F7FAF094F7F8F09497
:1027B00020E030E046E953ECC501B4010E94451920
:1027C00087FD0CC020E030E046E953E4C501B401C8
:1027D0000E94451987FFE4C07501640120E030E0E4
:1027E000A901C701B6010E9445198111DFC01092ED
:1027F0006F04109270041092710410927204C092CF
:102800008404D0928504E0928604F09287048CE6DA
:1028100094E00E9471060E9407028093BD030E940B
:10282000780B882309F46DC087E791E00E946C0B58
:1028300010929C0382E080939D03EEE7F3E0E49125
:10284000F0E0EE0FFF1FEE58FC4F859194919093AE
:102850009F0380939E03E2E9F3E0E491E093A003F9
:1028600060E082E00E94D102E5E7F3E086E1DF016B
:102870001D928A95E9F782E990E090937103809325
:10288000700382E590E090936F0380936E0380E87D
:1028900080938B0310928C038FEF9FEF9093A20392
:1028A0008093A1031092A30383E080936D03809132
:1028B000A00380936C0363E070E080919C030E940E
:1028C00034028DE190E00E94030E8F73682F6068E0
:1028D0008DE190E00E945B0E8093A4036AE087E0A4
:1028E00090E00E945B0E6DE088E090E00E945B0E3D
:1028F00080E00E94F20D41E061E088EC90E00E94EF
:10290000030DBAE04B2E55245394612C712C809109
:102910008D038823F1F02FB7F8948091BF03909135
:10292000C003A091C103B091C2032FBF40918E0399
:1029300050918F036091900370919103841B950BCC
:10294000A60BB70B4597A105B10518F080E00E94D2
:10295000F20D80917703882309F466C0F89488E02B
:10296000E3E8F3E0A4E6B4E001900D928A95E1F784
:1029700010927703789480916404E82FF0E0EA598C
:10298000FB4F8630A0F511928F5FFBCFA801B701F6
:10299000C9010E94991EF601E00FF11F108203CEBB
:1029A000C12CD12C06E9E02E03E4F02EA7019601FC
:1029B00060E074E284E799E40E94921B9F770E9492
:1029C0000B1C60936F047093700480937104909358
:1029D000720411E020E030E0A901C701B6010E94B5
:1029E0003A1C18160CF010E010936E0408CFE0E0CB
:1029F000F0E0EF2B21F084E694E00E94000080914B
:102A00006604811144C090916704911140C020E098
:102A100030E0232B11F00E94000080918D03882369
:102A200091F181E00E9426060E943A0A0E94070264
:102A30009091BD03891761F08093BD03811108C097
:102A40008CE694E00E94A50686E493E00E946C0B5D
:102A500011E003E187EC93E00E945C052091BC0348
:102A6000181619060CF02FC2211130C287EC93E022
:102A70000E943A059091BB03911150C28C3351F7DB
:102A80001093BB03E7CF81E00E94F20DCDCF909170
:102A90008D03992309F48FC08057803108F088C0D6
:102AA00081E00E942606109164048091940318131B
:102AB0000AC0412F50E066E973E086E694E00E9488
:102AC0007C1E892B61F01092930388E0E4E6F4E029
:102AD000A4E9B3E001900D928A95E1F7A5CF80912A
:102AE00093038F5F80939303133009F049C0909153
:102AF0006604892F8770F0906704853051F4F09256
:102B0000920380E090E0892B09F48ECF0E940000B0
:102B10008BCF0DE110E0843091F0282F30E084302D
:102B200010F5009192030023F1F00150110B000FFA
:102B3000111F000F111F020F131F0F5F1F4F93FF75
:102B400014C061E0C8010E94AC0C882309F46CCF6A
:102B50006F2DC8010E945B0EF81266CFA0E0B0E0B6
:102B6000AB2BA1F661CF8901E8CF60E0C8010E94DC
:102B7000AC0C882309F458CFC8010E94030EECCF97
:102B8000143009F051CF80916604682F70E0762FE1
:102B900066276627737090916704692B6F5F7F4F7C
:102BA00026EF34E0409168048C700E94A90E3CCF5F
:102BB00080E00E94F20DE0916604EF3F61F48091A5
:102BC0006704811131CFE0E0F0E0EF2B09F42CCF66
:102BD0000E94000029CFE7FD0DC0009169042091FB
:102BE00068044091670470E060E08E2F90E00E94DE
:102BF000170F1ACFE03C08F052C140918B0347FFFA
:102C000013CF90916704292F30E08901009510952A
:102C1000000F111F000F111F007C1170EF730E2B9E
:102C200035952795F22FF3703F2E809164048530FF
:102C300039F59C789C3021F50E940B0E8017910786
:102C400021F00F3F114009F0EFCE0091670410E032
:102C5000102F00270027137080916804080F111DA2
:102C60000F5F1F4FF090690461E0C8010E94AC0C37
:102C70006F2D882309F4D8CEC8010E945B0ED4CEF4
:102C8000680131E0C31AD108CC0CDD1CCC0CDD1C72
:102C9000C32876018FEFE81AF80A8091A3038823EE
:102CA000F9F046FF41C0C70160E071E00E94B61A2A
:102CB000682F81E090E00E945B0EC701F7FE02C022
:102CC00081509F4F692F89E090E00E945B0EA0E049
:102CD000B0E0AB2B19F0C7010E9400001092A303D3
:102CE00080918B0380FD39C080916404843009F0A9
:102CF0004FC0809167048978813009F095CE80E0DB
:102D000090E0892B29F060916804C7010E940000BF
:102D1000A0E0B0E0AB2B09F487CE40916804632DAE
:102D2000C7010E94000080CEB8016F73772781E051
:102D300090E00E945B0EB80146E0759567954A9554
:102D4000E1F789E090E00E945B0EE0E0F0E0EF2B1D
:102D500029F2C8010E940000C1CF86FF0DC00E9469
:102D60000B0E8E159F0509F4BFCFFDEFEF16F7E0B0
:102D7000FF060CF0B9CF58CE0E940B0E80179107BA
:102D800009F4B2CF0F3F21E0120709F4ADCF4CCECA
:102D9000833041F540916704B42FB170CB2E43FBD3
:102DA000DD24D0F8E0E0F0E0EF2B31F047702D2D7E
:102DB000B801C7010E94000080918B0386FF0BC001
:102DC00020E030E0232B09F42FCE4D2D6C2DC701D0
:102DD0000E94000029CE2D2D4C2D632DC8010E948C
:102DE000B70D22CE863009F01FCE80916704982F50
:102DF0009978913021F08F78803809F015CE809144
:102E00008B0386FF28C00E940B0E8E159F05E9F4E8
:102E10008091680490E0382F222722273370009198
:102E20006904020F132F111D0F5F1F4FF0906A04EA
:102E3000959587959595879583709927823091050B
:102E400099F0039709F410CFEFCD3DEFE31637E08B
:102E5000F306F4F6E9CD0E940B0E80179107C1F23C
:102E60000F3F1140A9F2E0CDF4FEDECD61E0C801D4
:102E70000E94AC0C882309F4D7CDC8010E94030E30
:102E80009F2D977061E070E001C0660F9A95EAF798
:102E9000F3FE02C0682BF0CE60956823EDCEE83ECD
:102EA00008F0C2CDE05CFF0B8091670400916A04DA
:102EB000209169044091680461E070E09E2F97CEF4
:102EC0009093BA03C7CD222309F448C01092BC03E3
:102ED00069E472E086EA93E00E94FC18DC011C9130
:102EE00069E472E090E080E00E94FC181D3469F50E
:102EF0000E94D5186B017C0169E472E090E080E0EB
:102F00000E94FC180E94B7188093A5030E94070234
:102F1000882309F448C083EE92E03FC09091BA0341
:102F2000E92FF0E0EA55FC4F8E3339F080839F5F44
:102F3000943130F20093BA038DCD10821092BB030E
:102F40001092BA031093BC0385CD133401F19CF4A5
:102F50001F3309F48DC0113409F4AFC080E090E054
:102F6000892B09F4D4CC0E946805882309F4CFCCBE
:102F70000E940000CCCC123509F44DC0133571F716
:102F800084E093E00E946C0B0E949F0CE7CF0E94AC
:102F90000702882329F087E292E00E946C0BDECFC3
:102FA0000E94780BDBCF8EEB92E0F7FCF6CFC114DA
:102FB000B0E8DB06E104F1041CF08FE692E0EDCF0F
:102FC00084E692E00E94EB054AE0C701B6010E9448
:102FD0001D0C8FE492E00E94EB056AE070E08091A6
:102FE000A5030E94820CC701B601A30192010E94B1
:102FF000EC1A18EC120F88E492E00E94EB056AE0EC
:1030000070E0812F0E94820C41E061E0812F90E00E
:103010000E94030DA3CF88E792E00E94930C0E94C8
:103020000D034B015C0180EDC82E87E0D82EE12C0A
:10303000F12C0E940D03681979098A099B09683EE1
:10304000734081059105A8F3E1E0CE1AD108E108AB
:10305000F108F8EE8F0EF3E09F1EA11CB11CC11405
:10306000D104E104F10429F7F0E0E0E0099576CF1E
:1030700082E892E00E94930C8FE892E00E94930C09
:1030800086EA92E00E94930C80EC92E00E94930CFE
:103090008AED92E00E94930C8FEE92E00E94930CD6
:1030A0008BE093E00E94930C8EE193E00E94930CDE
:1030B0008FE393E00E94930C51CF8DE393E00E9445
:1030C0006C0B8AE393E00E94EB0581E090E00E94A4
:1030D000DE0C86E393E00E94EB0581E090E00E9425
:1030E000030E6AE070E00E94820C83E393E00E948A
:1030F000EB0589E090E00E94DE0C8FE293E00E94F5
:10310000EB0589E090E00E94030E6AE070E00E9407
:10311000820C8CE293E00E94EB058DE190E00E942E
:10312000DE0C88E293E00E94EB058DE190E00E94C6
:10313000030E6AE070E00E94820C0BE210E082E273
:1031400093E00E94EB05C8010E94DE0C8EE193E043
:103150000E94EB05C8010E94030E6AE070E00E9425
:10316000820C085F1F4F0B3E110549F7F7CEFC019B
:1031700088279927E89421912032E9F3293010F02B
:103180002E30C8F32B3241F02D3239F4689404C04C
:103190000E943D19820F911D219120532A30C0F3C6
:1031A0001EF4909581959F4F08951F93FC019927D8
:1031B0008827BC01E89411911032E9F3193010F01E
:1031C0001E30C8F31B3251F01D3249F4689406C01A
:1031D0000E942819610F711D811D911D11911053BD
:1031E0001A30B0F33EF490958095709561957F4FBD
:1031F0008F4F9F4F1F91089540EB54E00E9401199B
:103200000895FA01A191B081009719F41097E1F0A7
:10321000CD01DC01CD010D90002011F4C00113C0DF
:10322000FB012191222319F02015D9F7F3CFFB01DF
:103230002191201519F41E92119606C02223C1F780
:103240000D900020A1F7D001FA01A193B083089559
:10325000592F482F372F262F660F771F881F991F4A
:10326000660F771F881F991F620F731F841F951F9A
:10327000660F771F881F991F08957AE0979F902DFA
:10328000879F802D910D112408950E94871908F4BD
:1032900081E00895E89409C097FB3EF490958095ED
:1032A000709561957F4F8F4F9F4F9923A9F0F92F0C
:1032B00096E9BB279395F695879577956795B7958A
:1032C000F111F8CFFAF4BB0F11F460FF1BC06F5F70
:1032D0007F4F8F4F9F4F16C0882311F096E911C082
:1032E000772321F09EE8872F762F05C0662371F0A3
:1032F00096E8862F70E060E02AF09A95660F771FB7
:10330000881FDAF7880F9695879597F90895990F92
:103310000008550FAA0BE0E8FEEF16161706E8079F
:10332000F907C0F012161306E407F50798F0621BC0
:10333000730B840B950B39F40A2661F0232B242B95
:10334000252B21F408950A2609F4A140A6958FEFB4
:10335000811D811D08950E94BE190C942F1A0E9490
:10336000211A38F00E94281A20F0952311F00C94AD
:10337000181A0C941E1A11240C94631A0E94401AF5
:1033800070F3959FC1F3950F50E0551F629FF001B8
:10339000729FBB27F00DB11D639FAA27F00DB11DD1
:1033A000AA1F649F6627B00DA11D661F829F22275A
:1033B000B00DA11D621F739FB00DA11D621F839FE1
:1033C000A00D611D221F749F3327A00D611D231FB7
:1033D000849F600D211D822F762F6A2F11249F5705
:1033E00050409AF0F1F088234AF0EE0FFF1FBB1F08
:1033F000661F771F881F91505040A9F79E3F5105C7
:1034000080F00C94181A0C94631A5F3FE4F3983E12
:10341000D4F3869577956795B795F795E7959F5F70
:10342000C1F7FE2B880F911D9695879597F9089502
:1034300097F99F6780E870E060E008959FEF80EC67
:10344000089500240A94161617061806090608950A
:1034500000240A9412161306140605060895092E70
:103460000394000C11F4882352F0BB0F40F4BF2BDF
:1034700011F460FF04C06F5F7F4F8F4F9F4F08951F
:1034800057FD9058440F551F59F05F3F71F0479515
:10349000880F97FB991F61F09F3F79F087950895FA
:1034A000121613061406551FF2CF4695F1DF08C019
:1034B000161617061806991FF1CF86957105610536
:1034C00008940895E894BB2766277727CB0197F9DE
:1034D0000895F999FECF92BD81BDF89A992780B5DC
:1034E0000895262FF999FECF1FBA92BD81BD20BD48
:1034F0000FB6F894FA9AF99A0FBE019608952F9292
:103500003F924F925F926F927F928F929F92AF9273
:10351000BF92CF92DF92EF92FF920F931F93CF93C0
:10352000DF93CDB7DEB7CA1BDB0B0FB6F894DEBF57
:103530000FBECDBF09942A88398848885F846E847D
:103540007D848C849B84AA84B984C884DF80EE80C7
:10355000FD800C811B81AA81B981CE0FD11D0FB6D0
:10356000F894DEBF0FBECDBFED01089597FB072E87
:1035700016F4009407D077FD09D00E94111B07FCB8
:1035800005D03EF4909581959F4F08957095619573
:103590007F4F0895A1E21A2EAA1BBB1BFD010DC08F
:1035A000AA1FBB1FEE1FFF1FA217B307E407F507F3
:1035B00020F0A21BB30BE40BF50B661F771F881FCF
:1035C000991F1A9469F760957095809590959B0165
:1035D000AC01BD01CF010895052E97FB1EF40094A8
:1035E0000E94031B57FD07D00E94CA1A07FC03D094
:1035F0004EF40C94031B50954095309521953F4F08
:103600004F4F5F4F089590958095709561957F4FCE
:103610008F4F9F4F0895EE0FFF1F0590F491E02DFF
:103620000994AA1BBB1B51E107C0AA1FBB1FA61709
:10363000B70710F0A61BB70B881F991F5A95A9F75B
:1036400080959095BC01CD0108955058BB27AA27BD
:103650000E943D1B0C942F1A0E94211A38F00E94E0
:10366000281A20F039F49F3F19F426F40C941E1AFE
:103670000EF4E095E7FB0C94181AE92F0E94401A0B
:1036800058F3BA17620773078407950720F079F497
:10369000A6F50C94621A0EF4E0950B2EBA2FA02D0D
:1036A0000B01B90190010C01CA01A0011124FF27EF
:1036B000591B99F0593F50F4503E68F11A16F040EA
:1036C000A22F232F342F4427585FF3CF46953795E9
:1036D0002795A795F0405395C9F77EF41F16BA0BAE
:1036E000620B730B840BBAF09150A1F0FF0FBB1F5C
:1036F000661F771F881FC2F70EC0BA0F621F731FA5
:10370000841F48F4879577956795B795F7959E3F01
:1037100008F0B0CF9395880F08F09927EE0F979592
:10372000879508950E94A61B0C942F1A0E94281AB0
:1037300058F00E94211A40F029F45F3F29F00C94C0
:10374000181A51110C94631A0C941E1A0E94401AF4
:1037500068F39923B1F3552391F3951B550BBB27C0
:10376000AA2762177307840738F09F5F5F4F220F05
:10377000331F441FAA1FA9F335D00E2E3AF0E0E8FC
:1037800032D091505040E695001CCAF72BD0FE2F46
:1037900029D0660F771F881FBB1F261737074807DA
:1037A000AB07B0E809F0BB0B802DBF01FF27935892
:1037B0005F4F3AF09E3F510578F00C94181A0C9424
:1037C000631A5F3FE4F3983ED4F386957795679547
:1037D000B795F7959F5FC9F7880F911D96958795C7
:1037E00097F90895E1E0660F771F881FBB1F6217E6
:1037F00073078407BA0720F0621B730B840BBA0BA4
:10380000EE1F88F7E09508950E940B1C6894B11193
:103810000C94631A08950E94481A88F09F5798F0F4
:10382000B92F9927B751B0F0E1F0660F771F881FC5
:10383000991F1AF0BA95C9F714C0B13091F00E94DF
:10384000621AB1E008950C94621A672F782F8827C6
:10385000B85F39F0B93FCCF3869577956795B39506
:10386000D9F73EF490958095709561957F4F8F4F75
:103870009F4F08950E94871908F48FEF089519F457
:1038800016F40C941E1A0C94851C0E94481AB8F366
:103890009923C9F3B6F39F57550B87FF0E94931CDA
:1038A0000024A0E640EA900180585695979528F4A8
:1038B000805C660F771F881F20F0261737074807A0
:1038C00030F4621B730B840B202931294A2BA695F7
:1038D00017940794202531254A2758F7660F771F3C
:1038E000881F20F026173707480730F4620B730B48
:1038F000840B200D311D411DA09581F7B901842F46
:103900009158880F9695879508959F3F31F0915073
:1039100020F4879577956795B795880F911D9695B3
:10392000879597F9089591505040660F771F881F2B
:10393000D2F708950F931F93CF93DF9382309105B1
:1039400010F482E090E0E091B404F091B50430E02E
:1039500020E0B0E0A0E0309799F42115310509F49A
:103960004AC0281B390B24303105D8F58A819B8148
:103970006115710589F1FB0193838283FE0111C0FA
:10398000408151810281138148175907E0F048179F
:10399000590799F4109761F012960C9312971396A9
:1039A0001C933296CF01DF91CF911F910F91089513
:1039B0000093B4041093B504F4CF2115310551F0F0
:1039C0004217530738F0A901DB019A01BD01DF015D
:1039D000F801C1CFEF01F9CF9093B5048093B404FF
:1039E000CDCFFE01E20FF31F819391932250310955
:1039F00039832883D7CF2091B2043091B304232B8D
:103A000041F42091090130910A013093B3042093CD
:103A1000B20420910701309108012115310541F4CC
:103A20002DB73EB740910B0150910C01241B350B73
:103A3000E091B204F091B304E217F307A0F42E1B57
:103A40003F0B2817390778F0AC014E5F5F4F241702
:103A5000350748F04E0F5F1F5093B3044093B204F4
:103A6000819391939FCFF0E0E0E09CCFCF93DF93E1
:103A70000097E9F0FC01329713821282A091B404FE
:103A8000B091B504ED0130E020E01097A1F4208161
:103A90003181820F931F2091B2043091B304281713
:103AA000390709F061C0F093B304E093B204DF91E9
:103AB000CF910895EA01CE17DF07E8F54A815B81CF
:103AC0009E0141155105B1F7E901FB83EA83499154
:103AD0005991C40FD51FEC17FD0761F480819181C6
:103AE0000296840F951FE9019983888382819381CF
:103AF0009B838A83F0E0E0E012968D919C9113976E
:103B00000097B9F52D913C911197CD010296820F46
:103B1000931F2091B2043091B3042817390739F666
:103B2000309751F51092B5041092B404B093B304D9
:103B3000A093B204BCCFD383C28340815181840F50
:103B4000951FC817D90761F44E5F5F4F888199812F
:103B5000480F591F518340838A819B8193838283BD
:103B60002115310509F0B0CFF093B504E093B4040A
:103B70009ECFFD01DC01C0CF13821282D7CFB0E00F
:103B8000A0E0E5ECFDE10C94811A8C01009751F462
:103B9000CB010E949A1C8C01C801CDB7DEB7E0E1D1
:103BA0000C949D1AFC01E60FF71F9C01225031096D
:103BB000E217F30708F49DC0D901CD91DC9111976C
:103BC000C617D70798F0C530D10530F3CE0104975A
:103BD0008617970708F3C61BD70B2297C193D1937B
:103BE0006D937C93CF010E94361DD6CF5B01AC1A3A
:103BF000BD0A4C018C0E9D1EA091B404B091B50479
:103C0000512C412CF12CE12C109731F58091B2040C
:103C10009091B3048815990509F05CC046165706C3
:103C200008F058C08091070190910801009741F475
:103C30008DB79EB740910B0150910C01841B950BE1
:103C4000E817F90708F055C0F093B304E093B20405
:103C5000F90171836083A0CF8D919C911197129689
:103C60006C90129713967C901397A815B90559F587
:103C70006C0142E0C40ED11CCA14DB0420F1AC017B
:103C80004A195B09DA011296159780F062827382F5
:103C900051834083D9016D937C93E114F10471F059
:103CA000D7011396FC93EE93129776CF22968C0F42
:103CB0009D1FF90191838083F301EFCFF093B50449
:103CC000E093B40469CF4816590608F42C017D012D
:103CD000D3019ACFCB010E949A1C7C01009749F036
:103CE000AE01B8010E94891EC8010E94361D8701DD
:103CF00053CF10E000E050CFFB01DC0104C08D91F8
:103D00000190801921F441505040C8F7881B990B4D
:103D10000895FB01DC0102C001900D92415050401A
:103D2000D8F70895FB01DC0101900D920020E1F726
:103D30000895FB01DC014150504048F001900D9284
:103D40000020C9F701C01D9241505040E0F708958E
:043D5000F894FFCF15
:103D5400FFFFFFFD04FD040000B6048000C80085D9
:103D6400000000050D0000C9000A0100008A0D00D2
:103D740000CA008F0100000F0E0000CB00140200E7
:103D840000940E0000CC0099020000190F0000CD31
:103D9400001E0300009E0F0000CE00A303000023BA
:103DA400100000CF0028040000A8100000D000ADCF
:103DB4000400002D110000D10032050000B21100F2
:103DC40000D200B705000037120000D3003C060003
:103DD40000BC120000D400C106000041130000D54D
:103DE4000046070000C6130000D600CB0700004BB6
:103DF400140000D70050080000D0140000D800D5EB
:103E040008000055150000D9005A090000DA150011
:103E140000DA00DF0900005F160000DB00640A001E
:103E240000E4160000DC00E90A000069170000DD68
:103E3400006E0B0000EE170000DE00F30B000073B1
:103E4400180000DF00780C0000F8180000000000E3
:103E5400009E05FE042B0506065C053A054E05008A
:103E6400000000A5067106CB0A010E84080608446A
:103E740008F007BE079D0769074807F206C3060D49
:103E84000A00466163746F727944656661756C7487
:103E94004356496E646578203A20006E6F746966F3
:103EA4007943564368616E67653A2043563A200069
:103EB4002056616C75653A2000302E302E31002E6C
:103EC40000566572696F6E00526573657474696E2D
:103ED4006700436F6D6D616E6473206172650020CD
:103EE40043203D2043616C6962726174652064659E
:103EF400636F646572002044203D20456E61626CEE
:103F0400652F44697361626C65206465627567003E
:103F14002045203D204572617365204550524F4D28
:103F240020636F6E74656E7473002048203D2049D1
:103F34006E69746961746520486F6D696E670020ED
:103F44004D203D204D6F7665203C20737465707361
:103F54002061637469766974793E002052203D20A3
:103F64005265736574206465636F646572002054E0
:103F7400203D20456E7465722F4578697420736501
:103F84006E736F722074657374206D6F64650020A6
:103F940056203D20446973706C61792074686520F3
:103FA4007374617274757020696E666F726D61747A
:043FB400696F6E00C3
:00000001FF
